{
  "address": "0x0165878A594ca255338adfa4d48449f69242Eb8F",
  "abi": [
    {
      "inputs": [
        {
          "internalType": "address",
          "name": "priceFeedAddress",
          "type": "address"
        },
        {
          "internalType": "string",
          "name": "lowSvg",
          "type": "string"
        },
        {
          "internalType": "string",
          "name": "highSvg",
          "type": "string"
        }
      ],
      "stateMutability": "nonpayable",
      "type": "constructor"
    },
    {
      "anonymous": false,
      "inputs": [
        {
          "indexed": true,
          "internalType": "address",
          "name": "owner",
          "type": "address"
        },
        {
          "indexed": true,
          "internalType": "address",
          "name": "approved",
          "type": "address"
        },
        {
          "indexed": true,
          "internalType": "uint256",
          "name": "tokenId",
          "type": "uint256"
        }
      ],
      "name": "Approval",
      "type": "event"
    },
    {
      "anonymous": false,
      "inputs": [
        {
          "indexed": true,
          "internalType": "address",
          "name": "owner",
          "type": "address"
        },
        {
          "indexed": true,
          "internalType": "address",
          "name": "operator",
          "type": "address"
        },
        {
          "indexed": false,
          "internalType": "bool",
          "name": "approved",
          "type": "bool"
        }
      ],
      "name": "ApprovalForAll",
      "type": "event"
    },
    {
      "anonymous": false,
      "inputs": [
        {
          "indexed": true,
          "internalType": "uint256",
          "name": "tokenId",
          "type": "uint256"
        },
        {
          "indexed": false,
          "internalType": "int256",
          "name": "highValue",
          "type": "int256"
        }
      ],
      "name": "CreatedNFT",
      "type": "event"
    },
    {
      "anonymous": false,
      "inputs": [
        {
          "indexed": true,
          "internalType": "address",
          "name": "from",
          "type": "address"
        },
        {
          "indexed": true,
          "internalType": "address",
          "name": "to",
          "type": "address"
        },
        {
          "indexed": true,
          "internalType": "uint256",
          "name": "tokenId",
          "type": "uint256"
        }
      ],
      "name": "Transfer",
      "type": "event"
    },
    {
      "inputs": [
        {
          "internalType": "address",
          "name": "to",
          "type": "address"
        },
        {
          "internalType": "uint256",
          "name": "tokenId",
          "type": "uint256"
        }
      ],
      "name": "approve",
      "outputs": [],
      "stateMutability": "nonpayable",
      "type": "function"
    },
    {
      "inputs": [
        {
          "internalType": "address",
          "name": "owner",
          "type": "address"
        }
      ],
      "name": "balanceOf",
      "outputs": [
        {
          "internalType": "uint256",
          "name": "",
          "type": "uint256"
        }
      ],
      "stateMutability": "view",
      "type": "function"
    },
    {
      "inputs": [
        {
          "internalType": "uint256",
          "name": "tokenId",
          "type": "uint256"
        }
      ],
      "name": "getApproved",
      "outputs": [
        {
          "internalType": "address",
          "name": "",
          "type": "address"
        }
      ],
      "stateMutability": "view",
      "type": "function"
    },
    {
      "inputs": [],
      "name": "getHighSVG",
      "outputs": [
        {
          "internalType": "string",
          "name": "",
          "type": "string"
        }
      ],
      "stateMutability": "view",
      "type": "function"
    },
    {
      "inputs": [],
      "name": "getLowSVG",
      "outputs": [
        {
          "internalType": "string",
          "name": "",
          "type": "string"
        }
      ],
      "stateMutability": "view",
      "type": "function"
    },
    {
      "inputs": [],
      "name": "getPriceFeed",
      "outputs": [
        {
          "internalType": "contract AggregatorV3Interface",
          "name": "",
          "type": "address"
        }
      ],
      "stateMutability": "view",
      "type": "function"
    },
    {
      "inputs": [],
      "name": "getTokenCounter",
      "outputs": [
        {
          "internalType": "uint256",
          "name": "",
          "type": "uint256"
        }
      ],
      "stateMutability": "view",
      "type": "function"
    },
    {
      "inputs": [
        {
          "internalType": "address",
          "name": "owner",
          "type": "address"
        },
        {
          "internalType": "address",
          "name": "operator",
          "type": "address"
        }
      ],
      "name": "isApprovedForAll",
      "outputs": [
        {
          "internalType": "bool",
          "name": "",
          "type": "bool"
        }
      ],
      "stateMutability": "view",
      "type": "function"
    },
    {
      "inputs": [
        {
          "internalType": "int256",
          "name": "highValue",
          "type": "int256"
        }
      ],
      "name": "mintNft",
      "outputs": [],
      "stateMutability": "nonpayable",
      "type": "function"
    },
    {
      "inputs": [],
      "name": "name",
      "outputs": [
        {
          "internalType": "string",
          "name": "",
          "type": "string"
        }
      ],
      "stateMutability": "view",
      "type": "function"
    },
    {
      "inputs": [
        {
          "internalType": "uint256",
          "name": "tokenId",
          "type": "uint256"
        }
      ],
      "name": "ownerOf",
      "outputs": [
        {
          "internalType": "address",
          "name": "",
          "type": "address"
        }
      ],
      "stateMutability": "view",
      "type": "function"
    },
    {
      "inputs": [
        {
          "internalType": "uint256",
          "name": "",
          "type": "uint256"
        }
      ],
      "name": "s_tokenIdToHighValue",
      "outputs": [
        {
          "internalType": "int256",
          "name": "",
          "type": "int256"
        }
      ],
      "stateMutability": "view",
      "type": "function"
    },
    {
      "inputs": [
        {
          "internalType": "address",
          "name": "from",
          "type": "address"
        },
        {
          "internalType": "address",
          "name": "to",
          "type": "address"
        },
        {
          "internalType": "uint256",
          "name": "tokenId",
          "type": "uint256"
        }
      ],
      "name": "safeTransferFrom",
      "outputs": [],
      "stateMutability": "nonpayable",
      "type": "function"
    },
    {
      "inputs": [
        {
          "internalType": "address",
          "name": "from",
          "type": "address"
        },
        {
          "internalType": "address",
          "name": "to",
          "type": "address"
        },
        {
          "internalType": "uint256",
          "name": "tokenId",
          "type": "uint256"
        },
        {
          "internalType": "bytes",
          "name": "data",
          "type": "bytes"
        }
      ],
      "name": "safeTransferFrom",
      "outputs": [],
      "stateMutability": "nonpayable",
      "type": "function"
    },
    {
      "inputs": [
        {
          "internalType": "address",
          "name": "operator",
          "type": "address"
        },
        {
          "internalType": "bool",
          "name": "approved",
          "type": "bool"
        }
      ],
      "name": "setApprovalForAll",
      "outputs": [],
      "stateMutability": "nonpayable",
      "type": "function"
    },
    {
      "inputs": [
        {
          "internalType": "bytes4",
          "name": "interfaceId",
          "type": "bytes4"
        }
      ],
      "name": "supportsInterface",
      "outputs": [
        {
          "internalType": "bool",
          "name": "",
          "type": "bool"
        }
      ],
      "stateMutability": "view",
      "type": "function"
    },
    {
      "inputs": [
        {
          "internalType": "string",
          "name": "_svg",
          "type": "string"
        }
      ],
      "name": "svgToImageURI",
      "outputs": [
        {
          "internalType": "string",
          "name": "",
          "type": "string"
        }
      ],
      "stateMutability": "pure",
      "type": "function"
    },
    {
      "inputs": [],
      "name": "symbol",
      "outputs": [
        {
          "internalType": "string",
          "name": "",
          "type": "string"
        }
      ],
      "stateMutability": "view",
      "type": "function"
    },
    {
      "inputs": [
        {
          "internalType": "uint256",
          "name": "tokenId",
          "type": "uint256"
        }
      ],
      "name": "tokenURI",
      "outputs": [
        {
          "internalType": "string",
          "name": "",
          "type": "string"
        }
      ],
      "stateMutability": "view",
      "type": "function"
    },
    {
      "inputs": [
        {
          "internalType": "address",
          "name": "from",
          "type": "address"
        },
        {
          "internalType": "address",
          "name": "to",
          "type": "address"
        },
        {
          "internalType": "uint256",
          "name": "tokenId",
          "type": "uint256"
        }
      ],
      "name": "transferFrom",
      "outputs": [],
      "stateMutability": "nonpayable",
      "type": "function"
    }
  ],
  "transactionHash": "0xa5cddbf4d32bae774de4a77e50379cd23aefe1d483a771db2488c5de1679e6ba",
  "args": [
    "0xe7f1725E7734CE288F8367e1Bb143E90bb3F0512",
    "<?xml version=\"1.0\" standalone=\"no\"?>\n<svg width=\"1024px\" height=\"1024px\" viewBox=\"0 0 1024 1024\" xmlns=\"http://www.w3.org/2000/svg\">\n  <path fill=\"#333\" d=\"M512 64C264.6 64 64 264.6 64 512s200.6 448 448 448 448-200.6 448-448S759.4 64 512 64zm0 820c-205.4 0-372-166.6-372-372s166.6-372 372-372 372 166.6 372 372-166.6 372-372 372z\"/>\n  <path fill=\"#E6E6E6\" d=\"M512 140c-205.4 0-372 166.6-372 372s166.6 372 372 372 372-166.6 372-372-166.6-372-372-372zM288 421a48.01 48.01 0 0 1 96 0 48.01 48.01 0 0 1-96 0zm376 272h-48.1c-4.2 0-7.8-3.2-8.1-7.4C604 636.1 562.5 597 512 597s-92.1 39.1-95.8 88.6c-.3 4.2-3.9 7.4-8.1 7.4H360a8 8 0 0 1-8-8.4c4.4-84.3 74.5-151.6 160-151.6s155.6 67.3 160 151.6a8 8 0 0 1-8 8.4zm24-224a48.01 48.01 0 0 1 0-96 48.01 48.01 0 0 1 0 96z\"/>\n  <path fill=\"#333\" d=\"M288 421a48 48 0 1 0 96 0 48 48 0 1 0-96 0zm224 112c-85.5 0-155.6 67.3-160 151.6a8 8 0 0 0 8 8.4h48.1c4.2 0 7.8-3.2 8.1-7.4 3.7-49.5 45.3-88.6 95.8-88.6s92 39.1 95.8 88.6c.3 4.2 3.9 7.4 8.1 7.4H664a8 8 0 0 0 8-8.4C667.6 600.3 597.5 533 512 533zm128-112a48 48 0 1 0 96 0 48 48 0 1 0-96 0z\"/>\n</svg>",
    "<svg viewBox=\"0 0 200 200\" width=\"400\"  height=\"400\" xmlns=\"http://www.w3.org/2000/svg\">\n  <circle cx=\"100\" cy=\"100\" fill=\"yellow\" r=\"78\" stroke=\"black\" stroke-width=\"3\"/>\n  <g class=\"eyes\">\n    <circle cx=\"61\" cy=\"82\" r=\"12\"/>\n    <circle cx=\"127\" cy=\"82\" r=\"12\"/>\n  </g>\n  <path d=\"m136.81 116.53c.69 26.17-64.11 42-81.52-.73\" style=\"fill:none; stroke: black; stroke-width: 3;\"/>\n</svg>"
  ],
  "numDeployments": 1,
  "solcInputHash": "69e670f8f561bcd7f23877342b4bc243",
  "bytecode": "0x60a06040523480156200001157600080fd5b5060405162003bc238038062003bc283398181016040528101906200003791906200064c565b6040518060400160405280600f81526020017f44796e616d696320537667204e667400000000000000000000000000000000008152506040518060400160405280600381526020017f44534e00000000000000000000000000000000000000000000000000000000008152508160009080519060200190620000bb9291906200039a565b508060019080519060200190620000d49291906200039a565b5050506000600681905550620000f0826200016e60201b60201c565b60079080519060200190620001079291906200039a565b5062000119816200016e60201b60201c565b60089080519060200190620001309291906200039a565b508273ffffffffffffffffffffffffffffffffffffffff1660808173ffffffffffffffffffffffffffffffffffffffff168152505050505062000937565b60606000620001a98360405160200162000189919062000733565b6040516020818303038152906040526200020c60201b62000f381760201c565b90506040518060400160405280601a81526020017f646174613a696d6167652f7376672b786d6c3b6261736536342c00000000000081525081604051602001620001f59291906200074c565b604051602081830303815290604052915050919050565b6060600082511415620002315760405180602001604052806000815250905062000395565b600060405180606001604052806040815260200162003b826040913990506000600360028551620002639190620007ad565b6200026f919062000839565b60046200027d919062000871565b90506000602082620002909190620007ad565b67ffffffffffffffff811115620002ac57620002ab620004de565b5b6040519080825280601f01601f191660200182016040528015620002df5781602001600182028036833780820191505090505b509050818152600183018586518101602084015b8183101562000350576003830192508251603f8160121c168501518253600182019150603f81600c1c168501518253600182019150603f8160061c168501518253600182019150603f8116850151825360018201915050620002f3565b6003895106600181146200036d57600281146200037e5762000389565b613d3d60f01b600283035262000389565b603d60f81b60018303525b50505050508093505050505b919050565b828054620003a89062000901565b90600052602060002090601f016020900481019282620003cc576000855562000418565b82601f10620003e757805160ff191683800117855562000418565b8280016001018555821562000418579182015b8281111562000417578251825591602001919060010190620003fa565b5b5090506200042791906200042b565b5090565b5b80821115620004465760008160009055506001016200042c565b5090565b6000604051905090565b600080fd5b600080fd5b600073ffffffffffffffffffffffffffffffffffffffff82169050919050565b60006200048b826200045e565b9050919050565b6200049d816200047e565b8114620004a957600080fd5b50565b600081519050620004bd8162000492565b92915050565b600080fd5b600080fd5b6000601f19601f8301169050919050565b7f4e487b7100000000000000000000000000000000000000000000000000000000600052604160045260246000fd5b6200051882620004cd565b810181811067ffffffffffffffff821117156200053a5762000539620004de565b5b80604052505050565b60006200054f6200044a565b90506200055d82826200050d565b919050565b600067ffffffffffffffff82111562000580576200057f620004de565b5b6200058b82620004cd565b9050602081019050919050565b60005b83811015620005b85780820151818401526020810190506200059b565b83811115620005c8576000848401525b50505050565b6000620005e5620005df8462000562565b62000543565b905082815260208101848484011115620006045762000603620004c8565b5b6200061184828562000598565b509392505050565b600082601f830112620006315762000630620004c3565b5b815162000643848260208601620005ce565b91505092915050565b60008060006060848603121562000668576200066762000454565b5b60006200067886828701620004ac565b935050602084015167ffffffffffffffff8111156200069c576200069b62000459565b5b620006aa8682870162000619565b925050604084015167ffffffffffffffff811115620006ce57620006cd62000459565b5b620006dc8682870162000619565b9150509250925092565b600081519050919050565b600081905092915050565b60006200070982620006e6565b620007158185620006f1565b93506200072781856020860162000598565b80840191505092915050565b6000620007418284620006fc565b915081905092915050565b60006200075a8285620006fc565b9150620007688284620006fc565b91508190509392505050565b6000819050919050565b7f4e487b7100000000000000000000000000000000000000000000000000000000600052601160045260246000fd5b6000620007ba8262000774565b9150620007c78362000774565b9250827fffffffffffffffffffffffffffffffffffffffffffffffffffffffffffffffff03821115620007ff57620007fe6200077e565b5b828201905092915050565b7f4e487b7100000000000000000000000000000000000000000000000000000000600052601260045260246000fd5b6000620008468262000774565b9150620008538362000774565b9250826200086657620008656200080a565b5b828204905092915050565b60006200087e8262000774565b91506200088b8362000774565b9250817fffffffffffffffffffffffffffffffffffffffffffffffffffffffffffffffff0483118215151615620008c757620008c66200077e565b5b828202905092915050565b7f4e487b7100000000000000000000000000000000000000000000000000000000600052602260045260246000fd5b600060028204905060018216806200091a57607f821691505b60208210811415620009315762000930620008d2565b5b50919050565b6080516132286200095a60003960008181610ad50152610bbf01526132286000f3fe608060405234801561001057600080fd5b506004361061012c5760003560e01c806370a08231116100ad578063b88d4fde11610071578063b88d4fde14610343578063c87b56dd1461035f578063e425aded1461038f578063e985e9c5146103bf578063ed28a122146103ef5761012c565b806370a082311461029d57806376f6056b146102cd57806395d89b41146102eb5780639e87a5cd14610309578063a22cb465146103275761012c565b806323b872dd116100f457806323b872dd146101e757806330d871c61461020357806342842e0e146102335780636352211e1461024f5780636e02007d1461027f5761012c565b806301ffc9a71461013157806306fdde0314610161578063081812fc1461017f578063095ea7b3146101af5780631e930812146101cb575b600080fd5b61014b60048036038101906101469190611e23565b61040d565b6040516101589190611e6b565b60405180910390f35b6101696104ef565b6040516101769190611f1f565b60405180910390f35b61019960048036038101906101949190611f77565b610581565b6040516101a69190611fe5565b60405180910390f35b6101c960048036038101906101c4919061202c565b6105c7565b005b6101e560048036038101906101e091906120a2565b6106df565b005b61020160048036038101906101fc91906120cf565b610757565b005b61021d60048036038101906102189190612257565b6107b7565b60405161022a9190611f1f565b60405180910390f35b61024d600480360381019061024891906120cf565b610844565b005b61026960048036038101906102649190611f77565b610864565b6040516102769190611fe5565b60405180910390f35b6102876108eb565b60405161029491906122af565b60405180910390f35b6102b760048036038101906102b291906122ca565b6108f5565b6040516102c491906122af565b60405180910390f35b6102d56109ad565b6040516102e29190611f1f565b60405180910390f35b6102f3610a3f565b6040516103009190611f1f565b60405180910390f35b610311610ad1565b60405161031e9190612356565b60405180910390f35b610341600480360381019061033c919061239d565b610af9565b005b61035d6004803603810190610358919061247e565b610b0f565b005b61037960048036038101906103749190611f77565b610b71565b6040516103869190611f1f565b60405180910390f35b6103a960048036038101906103a49190611f77565b610dfa565b6040516103b69190612510565b60405180910390f35b6103d960048036038101906103d4919061252b565b610e12565b6040516103e69190611e6b565b60405180910390f35b6103f7610ea6565b6040516104049190611f1f565b60405180910390f35b60007f80ac58cd000000000000000000000000000000000000000000000000000000007bffffffffffffffffffffffffffffffffffffffffffffffffffffffff1916827bffffffffffffffffffffffffffffffffffffffffffffffffffffffff191614806104d857507f5b5e139f000000000000000000000000000000000000000000000000000000007bffffffffffffffffffffffffffffffffffffffffffffffffffffffff1916827bffffffffffffffffffffffffffffffffffffffffffffffffffffffff1916145b806104e857506104e7826110b1565b5b9050919050565b6060600080546104fe9061259a565b80601f016020809104026020016040519081016040528092919081815260200182805461052a9061259a565b80156105775780601f1061054c57610100808354040283529160200191610577565b820191906000526020600020905b81548152906001019060200180831161055a57829003601f168201915b5050505050905090565b600061058c8261111b565b6004600083815260200190815260200160002060009054906101000a900473ffffffffffffffffffffffffffffffffffffffff169050919050565b60006105d282610864565b90508073ffffffffffffffffffffffffffffffffffffffff168373ffffffffffffffffffffffffffffffffffffffff161415610643576040517f08c379a000000000000000000000000000000000000000000000000000000000815260040161063a9061263e565b60405180910390fd5b8073ffffffffffffffffffffffffffffffffffffffff16610662611166565b73ffffffffffffffffffffffffffffffffffffffff16148061069157506106908161068b611166565b610e12565b5b6106d0576040517f08c379a00000000000000000000000000000000000000000000000000000000081526004016106c7906126d0565b60405180910390fd5b6106da838361116e565b505050565b80600960006006548152602001908152602001600020819055506001600654610708919061271f565b60068190555061071a33600654611227565b6006547f882d3b5a729a8bb95cf6c0083c99b42ecd9637123d4425bd7b768877fd8af8b08260405161074c9190612510565b60405180910390a250565b610768610762611166565b82611245565b6107a7576040517f08c379a000000000000000000000000000000000000000000000000000000000815260040161079e906127e7565b60405180910390fd5b6107b28383836112da565b505050565b606060006107e3836040516020016107cf9190612843565b604051602081830303815290604052610f38565b90506040518060400160405280601a81526020017f646174613a696d6167652f7376672b786d6c3b6261736536342c0000000000008152508160405160200161082d92919061285a565b604051602081830303815290604052915050919050565b61085f83838360405180602001604052806000815250610b0f565b505050565b600080610870836115d4565b9050600073ffffffffffffffffffffffffffffffffffffffff168173ffffffffffffffffffffffffffffffffffffffff1614156108e2576040517f08c379a00000000000000000000000000000000000000000000000000000000081526004016108d9906128ca565b60405180910390fd5b80915050919050565b6000600654905090565b60008073ffffffffffffffffffffffffffffffffffffffff168273ffffffffffffffffffffffffffffffffffffffff161415610966576040517f08c379a000000000000000000000000000000000000000000000000000000000815260040161095d9061295c565b60405180910390fd5b600360008373ffffffffffffffffffffffffffffffffffffffff1673ffffffffffffffffffffffffffffffffffffffff168152602001908152602001600020549050919050565b6060600880546109bc9061259a565b80601f01602080910402602001604051908101604052809291908181526020018280546109e89061259a565b8015610a355780601f10610a0a57610100808354040283529160200191610a35565b820191906000526020600020905b815481529060010190602001808311610a1857829003601f168201915b5050505050905090565b606060018054610a4e9061259a565b80601f0160208091040260200160405190810160405280929190818152602001828054610a7a9061259a565b8015610ac75780601f10610a9c57610100808354040283529160200191610ac7565b820191906000526020600020905b815481529060010190602001808311610aaa57829003601f168201915b5050505050905090565b60007f0000000000000000000000000000000000000000000000000000000000000000905090565b610b0b610b04611166565b8383611611565b5050565b610b20610b1a611166565b83611245565b610b5f576040517f08c379a0000000000000000000000000000000000000000000000000000000008152600401610b56906127e7565b60405180910390fd5b610b6b8484848461177e565b50505050565b6060610b7c826117da565b610bbb576040517f08c379a0000000000000000000000000000000000000000000000000000000008152600401610bb2906129c8565b60405180910390fd5b60007f000000000000000000000000000000000000000000000000000000000000000073ffffffffffffffffffffffffffffffffffffffff1663feaf968c6040518163ffffffff1660e01b815260040160a06040518083038186803b158015610c2357600080fd5b505afa158015610c37573d6000803e3d6000fd5b505050506040513d601f19601f82011682018060405250810190610c5b9190612a54565b505050915050600060078054610c709061259a565b80601f0160208091040260200160405190810160405280929190818152602001828054610c9c9061259a565b8015610ce95780601f10610cbe57610100808354040283529160200191610ce9565b820191906000526020600020905b815481529060010190602001808311610ccc57829003601f168201915b5050505050905060096000858152602001908152602001600020548212610d985760088054610d179061259a565b80601f0160208091040260200160405190810160405280929190818152602001828054610d439061259a565b8015610d905780601f10610d6557610100808354040283529160200191610d90565b820191906000526020600020905b815481529060010190602001808311610d7357829003601f168201915b505050505090505b610da061181b565b610dd1610dab6104ef565b83604051602001610dbd929190612c97565b604051602081830303815290604052610f38565b604051602001610de292919061285a565b60405160208183030381529060405292505050919050565b60096020528060005260406000206000915090505481565b6000600560008473ffffffffffffffffffffffffffffffffffffffff1673ffffffffffffffffffffffffffffffffffffffff16815260200190815260200160002060008373ffffffffffffffffffffffffffffffffffffffff1673ffffffffffffffffffffffffffffffffffffffff16815260200190815260200160002060009054906101000a900460ff16905092915050565b606060078054610eb59061259a565b80601f0160208091040260200160405190810160405280929190818152602001828054610ee19061259a565b8015610f2e5780601f10610f0357610100808354040283529160200191610f2e565b820191906000526020600020905b815481529060010190602001808311610f1157829003601f168201915b5050505050905090565b6060600082511415610f5b576040518060200160405280600081525090506110ac565b60006040518060600160405280604081526020016131b36040913990506000600360028551610f8a919061271f565b610f949190612d16565b6004610fa09190612d47565b90506000602082610fb1919061271f565b67ffffffffffffffff811115610fca57610fc961212c565b5b6040519080825280601f01601f191660200182016040528015610ffc5781602001600182028036833780820191505090505b509050818152600183018586518101602084015b8183101561106b576003830192508251603f8160121c168501518253600182019150603f81600c1c168501518253600182019150603f8160061c168501518253600182019150603f8116850151825360018201915050611010565b6003895106600181146110855760028114611095576110a0565b613d3d60f01b60028303526110a0565b603d60f81b60018303525b50505050508093505050505b919050565b60007f01ffc9a7000000000000000000000000000000000000000000000000000000007bffffffffffffffffffffffffffffffffffffffffffffffffffffffff1916827bffffffffffffffffffffffffffffffffffffffffffffffffffffffff1916149050919050565b611124816117da565b611163576040517f08c379a000000000000000000000000000000000000000000000000000000000815260040161115a906128ca565b60405180910390fd5b50565b600033905090565b816004600083815260200190815260200160002060006101000a81548173ffffffffffffffffffffffffffffffffffffffff021916908373ffffffffffffffffffffffffffffffffffffffff160217905550808273ffffffffffffffffffffffffffffffffffffffff166111e183610864565b73ffffffffffffffffffffffffffffffffffffffff167f8c5be1e5ebec7d5bd14f71427d1e84f3dd0314c0f7b2291e5b200ac8c7c3b92560405160405180910390a45050565b611241828260405180602001604052806000815250611858565b5050565b60008061125183610864565b90508073ffffffffffffffffffffffffffffffffffffffff168473ffffffffffffffffffffffffffffffffffffffff16148061129357506112928185610e12565b5b806112d157508373ffffffffffffffffffffffffffffffffffffffff166112b984610581565b73ffffffffffffffffffffffffffffffffffffffff16145b91505092915050565b8273ffffffffffffffffffffffffffffffffffffffff166112fa82610864565b73ffffffffffffffffffffffffffffffffffffffff1614611350576040517f08c379a000000000000000000000000000000000000000000000000000000000815260040161134790612e13565b60405180910390fd5b600073ffffffffffffffffffffffffffffffffffffffff168273ffffffffffffffffffffffffffffffffffffffff1614156113c0576040517f08c379a00000000000000000000000000000000000000000000000000000000081526004016113b790612ea5565b60405180910390fd5b6113cd83838360016118b3565b8273ffffffffffffffffffffffffffffffffffffffff166113ed82610864565b73ffffffffffffffffffffffffffffffffffffffff1614611443576040517f08c379a000000000000000000000000000000000000000000000000000000000815260040161143a90612e13565b60405180910390fd5b6004600082815260200190815260200160002060006101000a81549073ffffffffffffffffffffffffffffffffffffffff02191690556001600360008573ffffffffffffffffffffffffffffffffffffffff1673ffffffffffffffffffffffffffffffffffffffff168152602001908152602001600020600082825403925050819055506001600360008473ffffffffffffffffffffffffffffffffffffffff1673ffffffffffffffffffffffffffffffffffffffff16815260200190815260200160002060008282540192505081905550816002600083815260200190815260200160002060006101000a81548173ffffffffffffffffffffffffffffffffffffffff021916908373ffffffffffffffffffffffffffffffffffffffff160217905550808273ffffffffffffffffffffffffffffffffffffffff168473ffffffffffffffffffffffffffffffffffffffff167fddf252ad1be2c89b69c2b068fc378daa952ba7f163c4a11628f55a4df523b3ef60405160405180910390a46115cf83838360016119d9565b505050565b60006002600083815260200190815260200160002060009054906101000a900473ffffffffffffffffffffffffffffffffffffffff169050919050565b8173ffffffffffffffffffffffffffffffffffffffff168373ffffffffffffffffffffffffffffffffffffffff161415611680576040517f08c379a000000000000000000000000000000000000000000000000000000000815260040161167790612f11565b60405180910390fd5b80600560008573ffffffffffffffffffffffffffffffffffffffff1673ffffffffffffffffffffffffffffffffffffffff16815260200190815260200160002060008473ffffffffffffffffffffffffffffffffffffffff1673ffffffffffffffffffffffffffffffffffffffff16815260200190815260200160002060006101000a81548160ff0219169083151502179055508173ffffffffffffffffffffffffffffffffffffffff168373ffffffffffffffffffffffffffffffffffffffff167f17307eab39ab6107e8899845ad3d59bd9653f200f220920489ca2b5937696c31836040516117719190611e6b565b60405180910390a3505050565b6117898484846112da565b611795848484846119df565b6117d4576040517f08c379a00000000000000000000000000000000000000000000000000000000081526004016117cb90612fa3565b60405180910390fd5b50505050565b60008073ffffffffffffffffffffffffffffffffffffffff166117fc836115d4565b73ffffffffffffffffffffffffffffffffffffffff1614159050919050565b60606040518060400160405280601d81526020017f646174613a6170706c69636174696f6e2f6a736f6e3b6261736536342c000000815250905090565b6118628383611b76565b61186f60008484846119df565b6118ae576040517f08c379a00000000000000000000000000000000000000000000000000000000081526004016118a590612fa3565b60405180910390fd5b505050565b60018111156119d357600073ffffffffffffffffffffffffffffffffffffffff168473ffffffffffffffffffffffffffffffffffffffff16146119475780600360008673ffffffffffffffffffffffffffffffffffffffff1673ffffffffffffffffffffffffffffffffffffffff168152602001908152602001600020600082825461193f9190612fc3565b925050819055505b600073ffffffffffffffffffffffffffffffffffffffff168373ffffffffffffffffffffffffffffffffffffffff16146119d25780600360008573ffffffffffffffffffffffffffffffffffffffff1673ffffffffffffffffffffffffffffffffffffffff16815260200190815260200160002060008282546119ca919061271f565b925050819055505b5b50505050565b50505050565b6000611a008473ffffffffffffffffffffffffffffffffffffffff16611d94565b15611b69578373ffffffffffffffffffffffffffffffffffffffff1663150b7a02611a29611166565b8786866040518563ffffffff1660e01b8152600401611a4b949392919061304c565b602060405180830381600087803b158015611a6557600080fd5b505af1925050508015611a9657506040513d601f19601f82011682018060405250810190611a9391906130ad565b60015b611b19573d8060008114611ac6576040519150601f19603f3d011682016040523d82523d6000602084013e611acb565b606091505b50600081511415611b11576040517f08c379a0000000000000000000000000000000000000000000000000000000008152600401611b0890612fa3565b60405180910390fd5b805181602001fd5b63150b7a0260e01b7bffffffffffffffffffffffffffffffffffffffffffffffffffffffff1916817bffffffffffffffffffffffffffffffffffffffffffffffffffffffff191614915050611b6e565b600190505b949350505050565b600073ffffffffffffffffffffffffffffffffffffffff168273ffffffffffffffffffffffffffffffffffffffff161415611be6576040517f08c379a0000000000000000000000000000000000000000000000000000000008152600401611bdd90613126565b60405180910390fd5b611bef816117da565b15611c2f576040517f08c379a0000000000000000000000000000000000000000000000000000000008152600401611c2690613192565b60405180910390fd5b611c3d6000838360016118b3565b611c46816117da565b15611c86576040517f08c379a0000000000000000000000000000000000000000000000000000000008152600401611c7d90613192565b60405180910390fd5b6001600360008473ffffffffffffffffffffffffffffffffffffffff1673ffffffffffffffffffffffffffffffffffffffff16815260200190815260200160002060008282540192505081905550816002600083815260200190815260200160002060006101000a81548173ffffffffffffffffffffffffffffffffffffffff021916908373ffffffffffffffffffffffffffffffffffffffff160217905550808273ffffffffffffffffffffffffffffffffffffffff16600073ffffffffffffffffffffffffffffffffffffffff167fddf252ad1be2c89b69c2b068fc378daa952ba7f163c4a11628f55a4df523b3ef60405160405180910390a4611d906000838360016119d9565b5050565b6000808273ffffffffffffffffffffffffffffffffffffffff163b119050919050565b6000604051905090565b600080fd5b600080fd5b60007fffffffff0000000000000000000000000000000000000000000000000000000082169050919050565b611e0081611dcb565b8114611e0b57600080fd5b50565b600081359050611e1d81611df7565b92915050565b600060208284031215611e3957611e38611dc1565b5b6000611e4784828501611e0e565b91505092915050565b60008115159050919050565b611e6581611e50565b82525050565b6000602082019050611e806000830184611e5c565b92915050565b600081519050919050565b600082825260208201905092915050565b60005b83811015611ec0578082015181840152602081019050611ea5565b83811115611ecf576000848401525b50505050565b6000601f19601f8301169050919050565b6000611ef182611e86565b611efb8185611e91565b9350611f0b818560208601611ea2565b611f1481611ed5565b840191505092915050565b60006020820190508181036000830152611f398184611ee6565b905092915050565b6000819050919050565b611f5481611f41565b8114611f5f57600080fd5b50565b600081359050611f7181611f4b565b92915050565b600060208284031215611f8d57611f8c611dc1565b5b6000611f9b84828501611f62565b91505092915050565b600073ffffffffffffffffffffffffffffffffffffffff82169050919050565b6000611fcf82611fa4565b9050919050565b611fdf81611fc4565b82525050565b6000602082019050611ffa6000830184611fd6565b92915050565b61200981611fc4565b811461201457600080fd5b50565b60008135905061202681612000565b92915050565b6000806040838503121561204357612042611dc1565b5b600061205185828601612017565b925050602061206285828601611f62565b9150509250929050565b6000819050919050565b61207f8161206c565b811461208a57600080fd5b50565b60008135905061209c81612076565b92915050565b6000602082840312156120b8576120b7611dc1565b5b60006120c68482850161208d565b91505092915050565b6000806000606084860312156120e8576120e7611dc1565b5b60006120f686828701612017565b935050602061210786828701612017565b925050604061211886828701611f62565b9150509250925092565b600080fd5b600080fd5b7f4e487b7100000000000000000000000000000000000000000000000000000000600052604160045260246000fd5b61216482611ed5565b810181811067ffffffffffffffff821117156121835761218261212c565b5b80604052505050565b6000612196611db7565b90506121a2828261215b565b919050565b600067ffffffffffffffff8211156121c2576121c161212c565b5b6121cb82611ed5565b9050602081019050919050565b82818337600083830152505050565b60006121fa6121f5846121a7565b61218c565b90508281526020810184848401111561221657612215612127565b5b6122218482856121d8565b509392505050565b600082601f83011261223e5761223d612122565b5b813561224e8482602086016121e7565b91505092915050565b60006020828403121561226d5761226c611dc1565b5b600082013567ffffffffffffffff81111561228b5761228a611dc6565b5b61229784828501612229565b91505092915050565b6122a981611f41565b82525050565b60006020820190506122c460008301846122a0565b92915050565b6000602082840312156122e0576122df611dc1565b5b60006122ee84828501612017565b91505092915050565b6000819050919050565b600061231c61231761231284611fa4565b6122f7565b611fa4565b9050919050565b600061232e82612301565b9050919050565b600061234082612323565b9050919050565b61235081612335565b82525050565b600060208201905061236b6000830184612347565b92915050565b61237a81611e50565b811461238557600080fd5b50565b60008135905061239781612371565b92915050565b600080604083850312156123b4576123b3611dc1565b5b60006123c285828601612017565b92505060206123d385828601612388565b9150509250929050565b600067ffffffffffffffff8211156123f8576123f761212c565b5b61240182611ed5565b9050602081019050919050565b600061242161241c846123dd565b61218c565b90508281526020810184848401111561243d5761243c612127565b5b6124488482856121d8565b509392505050565b600082601f83011261246557612464612122565b5b813561247584826020860161240e565b91505092915050565b6000806000806080858703121561249857612497611dc1565b5b60006124a687828801612017565b94505060206124b787828801612017565b93505060406124c887828801611f62565b925050606085013567ffffffffffffffff8111156124e9576124e8611dc6565b5b6124f587828801612450565b91505092959194509250565b61250a8161206c565b82525050565b60006020820190506125256000830184612501565b92915050565b6000806040838503121561254257612541611dc1565b5b600061255085828601612017565b925050602061256185828601612017565b9150509250929050565b7f4e487b7100000000000000000000000000000000000000000000000000000000600052602260045260246000fd5b600060028204905060018216806125b257607f821691505b602082108114156125c6576125c561256b565b5b50919050565b7f4552433732313a20617070726f76616c20746f2063757272656e74206f776e6560008201527f7200000000000000000000000000000000000000000000000000000000000000602082015250565b6000612628602183611e91565b9150612633826125cc565b604082019050919050565b600060208201905081810360008301526126578161261b565b9050919050565b7f4552433732313a20617070726f76652063616c6c6572206973206e6f7420746f60008201527f6b656e206f776e6572206f7220617070726f76656420666f7220616c6c000000602082015250565b60006126ba603d83611e91565b91506126c58261265e565b604082019050919050565b600060208201905081810360008301526126e9816126ad565b9050919050565b7f4e487b7100000000000000000000000000000000000000000000000000000000600052601160045260246000fd5b600061272a82611f41565b915061273583611f41565b9250827fffffffffffffffffffffffffffffffffffffffffffffffffffffffffffffffff0382111561276a576127696126f0565b5b828201905092915050565b7f4552433732313a2063616c6c6572206973206e6f7420746f6b656e206f776e6560008201527f72206f7220617070726f76656400000000000000000000000000000000000000602082015250565b60006127d1602d83611e91565b91506127dc82612775565b604082019050919050565b60006020820190508181036000830152612800816127c4565b9050919050565b600081905092915050565b600061281d82611e86565b6128278185612807565b9350612837818560208601611ea2565b80840191505092915050565b600061284f8284612812565b915081905092915050565b60006128668285612812565b91506128728284612812565b91508190509392505050565b7f4552433732313a20696e76616c696420746f6b656e2049440000000000000000600082015250565b60006128b4601883611e91565b91506128bf8261287e565b602082019050919050565b600060208201905081810360008301526128e3816128a7565b9050919050565b7f4552433732313a2061646472657373207a65726f206973206e6f74206120766160008201527f6c6964206f776e65720000000000000000000000000000000000000000000000602082015250565b6000612946602983611e91565b9150612951826128ea565b604082019050919050565b6000602082019050818103600083015261297581612939565b9050919050565b7f55524920517565727920666f72206e6f6e6578697374656e7420746f6b656e00600082015250565b60006129b2601f83611e91565b91506129bd8261297c565b602082019050919050565b600060208201905081810360008301526129e1816129a5565b9050919050565b600069ffffffffffffffffffff82169050919050565b612a07816129e8565b8114612a1257600080fd5b50565b600081519050612a24816129fe565b92915050565b600081519050612a3981612076565b92915050565b600081519050612a4e81611f4b565b92915050565b600080600080600060a08688031215612a7057612a6f611dc1565b5b6000612a7e88828901612a15565b9550506020612a8f88828901612a2a565b9450506040612aa088828901612a3f565b9350506060612ab188828901612a3f565b9250506080612ac288828901612a15565b9150509295509295909350565b7f7b226e616d65223a220000000000000000000000000000000000000000000000600082015250565b6000612b05600983612807565b9150612b1082612acf565b600982019050919050565b7f222c20226465736372697074696f6e223a22416e204e4654207468617420636860008201527f616e676573206261736564206f6e2074686520436861696e6c696e6b2046656560208201527f64222c2000000000000000000000000000000000000000000000000000000000604082015250565b6000612b9d604483612807565b9150612ba882612b1b565b604482019050919050565b7f2261747472696275746573223a205b7b2274726169745f74797065223a20226360008201527f6f6f6c6e657373222c202276616c7565223a203130307d5d2c2022696d61676560208201527f223a220000000000000000000000000000000000000000000000000000000000604082015250565b6000612c35604383612807565b9150612c4082612bb3565b604382019050919050565b7f227d000000000000000000000000000000000000000000000000000000000000600082015250565b6000612c81600283612807565b9150612c8c82612c4b565b600282019050919050565b6000612ca282612af8565b9150612cae8285612812565b9150612cb982612b90565b9150612cc482612c28565b9150612cd08284612812565b9150612cdb82612c74565b91508190509392505050565b7f4e487b7100000000000000000000000000000000000000000000000000000000600052601260045260246000fd5b6000612d2182611f41565b9150612d2c83611f41565b925082612d3c57612d3b612ce7565b5b828204905092915050565b6000612d5282611f41565b9150612d5d83611f41565b9250817fffffffffffffffffffffffffffffffffffffffffffffffffffffffffffffffff0483118215151615612d9657612d956126f0565b5b828202905092915050565b7f4552433732313a207472616e736665722066726f6d20696e636f72726563742060008201527f6f776e6572000000000000000000000000000000000000000000000000000000602082015250565b6000612dfd602583611e91565b9150612e0882612da1565b604082019050919050565b60006020820190508181036000830152612e2c81612df0565b9050919050565b7f4552433732313a207472616e7366657220746f20746865207a65726f2061646460008201527f7265737300000000000000000000000000000000000000000000000000000000602082015250565b6000612e8f602483611e91565b9150612e9a82612e33565b604082019050919050565b60006020820190508181036000830152612ebe81612e82565b9050919050565b7f4552433732313a20617070726f766520746f2063616c6c657200000000000000600082015250565b6000612efb601983611e91565b9150612f0682612ec5565b602082019050919050565b60006020820190508181036000830152612f2a81612eee565b9050919050565b7f4552433732313a207472616e7366657220746f206e6f6e20455243373231526560008201527f63656976657220696d706c656d656e7465720000000000000000000000000000602082015250565b6000612f8d603283611e91565b9150612f9882612f31565b604082019050919050565b60006020820190508181036000830152612fbc81612f80565b9050919050565b6000612fce82611f41565b9150612fd983611f41565b925082821015612fec57612feb6126f0565b5b828203905092915050565b600081519050919050565b600082825260208201905092915050565b600061301e82612ff7565b6130288185613002565b9350613038818560208601611ea2565b61304181611ed5565b840191505092915050565b60006080820190506130616000830187611fd6565b61306e6020830186611fd6565b61307b60408301856122a0565b818103606083015261308d8184613013565b905095945050505050565b6000815190506130a781611df7565b92915050565b6000602082840312156130c3576130c2611dc1565b5b60006130d184828501613098565b91505092915050565b7f4552433732313a206d696e7420746f20746865207a65726f2061646472657373600082015250565b6000613110602083611e91565b915061311b826130da565b602082019050919050565b6000602082019050818103600083015261313f81613103565b9050919050565b7f4552433732313a20746f6b656e20616c7265616479206d696e74656400000000600082015250565b600061317c601c83611e91565b915061318782613146565b602082019050919050565b600060208201905081810360008301526131ab8161316f565b905091905056fe4142434445464748494a4b4c4d4e4f505152535455565758595a6162636465666768696a6b6c6d6e6f707172737475767778797a303132333435363738392b2fa2646970667358221220dc6b9ee848526c7d97f71cf33239a961b872bc797ed68a039c5ce82e500cbbc564736f6c634300080900334142434445464748494a4b4c4d4e4f505152535455565758595a6162636465666768696a6b6c6d6e6f707172737475767778797a303132333435363738392b2f",
  "devdoc": {
    "kind": "dev",
    "methods": {
      "approve(address,uint256)": {
        "details": "See {IERC721-approve}."
      },
      "balanceOf(address)": {
        "details": "See {IERC721-balanceOf}."
      },
      "getApproved(uint256)": {
        "details": "See {IERC721-getApproved}."
      },
      "isApprovedForAll(address,address)": {
        "details": "See {IERC721-isApprovedForAll}."
      },
      "name()": {
        "details": "See {IERC721Metadata-name}."
      },
      "ownerOf(uint256)": {
        "details": "See {IERC721-ownerOf}."
      },
      "safeTransferFrom(address,address,uint256)": {
        "details": "See {IERC721-safeTransferFrom}."
      },
      "safeTransferFrom(address,address,uint256,bytes)": {
        "details": "See {IERC721-safeTransferFrom}."
      },
      "setApprovalForAll(address,bool)": {
        "details": "See {IERC721-setApprovalForAll}."
      },
      "supportsInterface(bytes4)": {
        "details": "See {IERC165-supportsInterface}."
      },
      "symbol()": {
        "details": "See {IERC721Metadata-symbol}."
      },
      "tokenURI(uint256)": {
        "details": "See {IERC721Metadata-tokenURI}."
      },
      "transferFrom(address,address,uint256)": {
        "details": "See {IERC721-transferFrom}."
      }
    },
    "version": 1
  },
  "userdoc": {
    "kind": "user",
    "methods": {},
    "version": 1
  },
  "storageLayout": {
    "storage": [
      {
        "astId": 71,
        "contract": "contracts/DynamicSvgNft.sol:DynamicSvgNft",
        "label": "_name",
        "offset": 0,
        "slot": "0",
        "type": "t_string_storage"
      },
      {
        "astId": 73,
        "contract": "contracts/DynamicSvgNft.sol:DynamicSvgNft",
        "label": "_symbol",
        "offset": 0,
        "slot": "1",
        "type": "t_string_storage"
      },
      {
        "astId": 77,
        "contract": "contracts/DynamicSvgNft.sol:DynamicSvgNft",
        "label": "_owners",
        "offset": 0,
        "slot": "2",
        "type": "t_mapping(t_uint256,t_address)"
      },
      {
        "astId": 81,
        "contract": "contracts/DynamicSvgNft.sol:DynamicSvgNft",
        "label": "_balances",
        "offset": 0,
        "slot": "3",
        "type": "t_mapping(t_address,t_uint256)"
      },
      {
        "astId": 85,
        "contract": "contracts/DynamicSvgNft.sol:DynamicSvgNft",
        "label": "_tokenApprovals",
        "offset": 0,
        "slot": "4",
        "type": "t_mapping(t_uint256,t_address)"
      },
      {
        "astId": 91,
        "contract": "contracts/DynamicSvgNft.sol:DynamicSvgNft",
        "label": "_operatorApprovals",
        "offset": 0,
        "slot": "5",
        "type": "t_mapping(t_address,t_mapping(t_address,t_bool))"
      },
      {
        "astId": 2703,
        "contract": "contracts/DynamicSvgNft.sol:DynamicSvgNft",
        "label": "s_tokenCounter",
        "offset": 0,
        "slot": "6",
        "type": "t_uint256"
      },
      {
        "astId": 2705,
        "contract": "contracts/DynamicSvgNft.sol:DynamicSvgNft",
        "label": "i_imageLowSvg",
        "offset": 0,
        "slot": "7",
        "type": "t_string_storage"
      },
      {
        "astId": 2707,
        "contract": "contracts/DynamicSvgNft.sol:DynamicSvgNft",
        "label": "i_imageHighSvg",
        "offset": 0,
        "slot": "8",
        "type": "t_string_storage"
      },
      {
        "astId": 2717,
        "contract": "contracts/DynamicSvgNft.sol:DynamicSvgNft",
        "label": "s_tokenIdToHighValue",
        "offset": 0,
        "slot": "9",
        "type": "t_mapping(t_uint256,t_int256)"
      }
    ],
    "types": {
      "t_address": {
        "encoding": "inplace",
        "label": "address",
        "numberOfBytes": "20"
      },
      "t_bool": {
        "encoding": "inplace",
        "label": "bool",
        "numberOfBytes": "1"
      },
      "t_int256": {
        "encoding": "inplace",
        "label": "int256",
        "numberOfBytes": "32"
      },
      "t_mapping(t_address,t_bool)": {
        "encoding": "mapping",
        "key": "t_address",
        "label": "mapping(address => bool)",
        "numberOfBytes": "32",
        "value": "t_bool"
      },
      "t_mapping(t_address,t_mapping(t_address,t_bool))": {
        "encoding": "mapping",
        "key": "t_address",
        "label": "mapping(address => mapping(address => bool))",
        "numberOfBytes": "32",
        "value": "t_mapping(t_address,t_bool)"
      },
      "t_mapping(t_address,t_uint256)": {
        "encoding": "mapping",
        "key": "t_address",
        "label": "mapping(address => uint256)",
        "numberOfBytes": "32",
        "value": "t_uint256"
      },
      "t_mapping(t_uint256,t_address)": {
        "encoding": "mapping",
        "key": "t_uint256",
        "label": "mapping(uint256 => address)",
        "numberOfBytes": "32",
        "value": "t_address"
      },
      "t_mapping(t_uint256,t_int256)": {
        "encoding": "mapping",
        "key": "t_uint256",
        "label": "mapping(uint256 => int256)",
        "numberOfBytes": "32",
        "value": "t_int256"
      },
      "t_string_storage": {
        "encoding": "bytes",
        "label": "string",
        "numberOfBytes": "32"
      },
      "t_uint256": {
        "encoding": "inplace",
        "label": "uint256",
        "numberOfBytes": "32"
      }
    }
  }
}