{
  "address": "0xDc64a140Aa3E981100a9becA4E685f962f0cF6C9",
  "abi": [
    {
      "inputs": [
        {
          "internalType": "address",
          "name": "vrfCoordinatorV2",
          "type": "address"
        },
        {
          "internalType": "uint64",
          "name": "subscriptionId",
          "type": "uint64"
        },
        {
          "internalType": "bytes32",
          "name": "gasLane",
          "type": "bytes32"
        },
        {
          "internalType": "uint32",
          "name": "callbackGasLimit",
          "type": "uint32"
        },
        {
          "internalType": "uint256",
          "name": "mintFee",
          "type": "uint256"
        },
        {
          "internalType": "string[3]",
          "name": "dogTokenUri",
          "type": "string[3]"
        }
      ],
      "stateMutability": "nonpayable",
      "type": "constructor"
    },
    {
      "inputs": [
        {
          "internalType": "address",
          "name": "have",
          "type": "address"
        },
        {
          "internalType": "address",
          "name": "want",
          "type": "address"
        }
      ],
      "name": "OnlyCoordinatorCanFulfill",
      "type": "error"
    },
    {
      "inputs": [],
      "name": "RandomIpfsNft__AlreadyInitialized",
      "type": "error"
    },
    {
      "inputs": [],
      "name": "RandomIpfsNft__NeedMoreETHSent",
      "type": "error"
    },
    {
      "inputs": [],
      "name": "RandomIpfsNft__RangeOutOfBounds",
      "type": "error"
    },
    {
      "inputs": [],
      "name": "RandomIpfsNft__TransferFailed",
      "type": "error"
    },
    {
      "anonymous": false,
      "inputs": [
        {
          "indexed": true,
          "internalType": "address",
          "name": "owner",
          "type": "address"
        },
        {
          "indexed": true,
          "internalType": "address",
          "name": "approved",
          "type": "address"
        },
        {
          "indexed": true,
          "internalType": "uint256",
          "name": "tokenId",
          "type": "uint256"
        }
      ],
      "name": "Approval",
      "type": "event"
    },
    {
      "anonymous": false,
      "inputs": [
        {
          "indexed": true,
          "internalType": "address",
          "name": "owner",
          "type": "address"
        },
        {
          "indexed": true,
          "internalType": "address",
          "name": "operator",
          "type": "address"
        },
        {
          "indexed": false,
          "internalType": "bool",
          "name": "approved",
          "type": "bool"
        }
      ],
      "name": "ApprovalForAll",
      "type": "event"
    },
    {
      "anonymous": false,
      "inputs": [
        {
          "indexed": false,
          "internalType": "enum RandomIpfsNft.Breed",
          "name": "dogBreed",
          "type": "uint8"
        },
        {
          "indexed": false,
          "internalType": "address",
          "name": "minter",
          "type": "address"
        }
      ],
      "name": "NftMinted",
      "type": "event"
    },
    {
      "anonymous": false,
      "inputs": [
        {
          "indexed": true,
          "internalType": "uint256",
          "name": "requestId",
          "type": "uint256"
        },
        {
          "indexed": false,
          "internalType": "address",
          "name": "requester",
          "type": "address"
        }
      ],
      "name": "NftRequested",
      "type": "event"
    },
    {
      "anonymous": false,
      "inputs": [
        {
          "indexed": true,
          "internalType": "address",
          "name": "previousOwner",
          "type": "address"
        },
        {
          "indexed": true,
          "internalType": "address",
          "name": "newOwner",
          "type": "address"
        }
      ],
      "name": "OwnershipTransferred",
      "type": "event"
    },
    {
      "anonymous": false,
      "inputs": [
        {
          "indexed": true,
          "internalType": "address",
          "name": "from",
          "type": "address"
        },
        {
          "indexed": true,
          "internalType": "address",
          "name": "to",
          "type": "address"
        },
        {
          "indexed": true,
          "internalType": "uint256",
          "name": "tokenId",
          "type": "uint256"
        }
      ],
      "name": "Transfer",
      "type": "event"
    },
    {
      "inputs": [
        {
          "internalType": "address",
          "name": "to",
          "type": "address"
        },
        {
          "internalType": "uint256",
          "name": "tokenId",
          "type": "uint256"
        }
      ],
      "name": "approve",
      "outputs": [],
      "stateMutability": "nonpayable",
      "type": "function"
    },
    {
      "inputs": [
        {
          "internalType": "address",
          "name": "owner",
          "type": "address"
        }
      ],
      "name": "balanceOf",
      "outputs": [
        {
          "internalType": "uint256",
          "name": "",
          "type": "uint256"
        }
      ],
      "stateMutability": "view",
      "type": "function"
    },
    {
      "inputs": [
        {
          "internalType": "uint256",
          "name": "tokenId",
          "type": "uint256"
        }
      ],
      "name": "getApproved",
      "outputs": [
        {
          "internalType": "address",
          "name": "",
          "type": "address"
        }
      ],
      "stateMutability": "view",
      "type": "function"
    },
    {
      "inputs": [
        {
          "internalType": "uint256",
          "name": "moddedRng",
          "type": "uint256"
        }
      ],
      "name": "getBreedFromModdedRng",
      "outputs": [
        {
          "internalType": "enum RandomIpfsNft.Breed",
          "name": "",
          "type": "uint8"
        }
      ],
      "stateMutability": "pure",
      "type": "function"
    },
    {
      "inputs": [],
      "name": "getChanceArray",
      "outputs": [
        {
          "internalType": "uint256[3]",
          "name": "",
          "type": "uint256[3]"
        }
      ],
      "stateMutability": "pure",
      "type": "function"
    },
    {
      "inputs": [
        {
          "internalType": "uint256",
          "name": "index",
          "type": "uint256"
        }
      ],
      "name": "getDogTokenUris",
      "outputs": [
        {
          "internalType": "string",
          "name": "",
          "type": "string"
        }
      ],
      "stateMutability": "view",
      "type": "function"
    },
    {
      "inputs": [],
      "name": "getInitialized",
      "outputs": [
        {
          "internalType": "bool",
          "name": "",
          "type": "bool"
        }
      ],
      "stateMutability": "view",
      "type": "function"
    },
    {
      "inputs": [],
      "name": "getMintFee",
      "outputs": [
        {
          "internalType": "uint256",
          "name": "",
          "type": "uint256"
        }
      ],
      "stateMutability": "view",
      "type": "function"
    },
    {
      "inputs": [],
      "name": "getTokenCounter",
      "outputs": [
        {
          "internalType": "uint256",
          "name": "",
          "type": "uint256"
        }
      ],
      "stateMutability": "view",
      "type": "function"
    },
    {
      "inputs": [
        {
          "internalType": "address",
          "name": "owner",
          "type": "address"
        },
        {
          "internalType": "address",
          "name": "operator",
          "type": "address"
        }
      ],
      "name": "isApprovedForAll",
      "outputs": [
        {
          "internalType": "bool",
          "name": "",
          "type": "bool"
        }
      ],
      "stateMutability": "view",
      "type": "function"
    },
    {
      "inputs": [],
      "name": "name",
      "outputs": [
        {
          "internalType": "string",
          "name": "",
          "type": "string"
        }
      ],
      "stateMutability": "view",
      "type": "function"
    },
    {
      "inputs": [],
      "name": "owner",
      "outputs": [
        {
          "internalType": "address",
          "name": "",
          "type": "address"
        }
      ],
      "stateMutability": "view",
      "type": "function"
    },
    {
      "inputs": [
        {
          "internalType": "uint256",
          "name": "tokenId",
          "type": "uint256"
        }
      ],
      "name": "ownerOf",
      "outputs": [
        {
          "internalType": "address",
          "name": "",
          "type": "address"
        }
      ],
      "stateMutability": "view",
      "type": "function"
    },
    {
      "inputs": [
        {
          "internalType": "uint256",
          "name": "requestId",
          "type": "uint256"
        },
        {
          "internalType": "uint256[]",
          "name": "randomWords",
          "type": "uint256[]"
        }
      ],
      "name": "rawFulfillRandomWords",
      "outputs": [],
      "stateMutability": "nonpayable",
      "type": "function"
    },
    {
      "inputs": [],
      "name": "renounceOwnership",
      "outputs": [],
      "stateMutability": "nonpayable",
      "type": "function"
    },
    {
      "inputs": [],
      "name": "requestNft",
      "outputs": [
        {
          "internalType": "uint256",
          "name": "requestId",
          "type": "uint256"
        }
      ],
      "stateMutability": "payable",
      "type": "function"
    },
    {
      "inputs": [
        {
          "internalType": "uint256",
          "name": "",
          "type": "uint256"
        }
      ],
      "name": "s_requestIdToSender",
      "outputs": [
        {
          "internalType": "address",
          "name": "",
          "type": "address"
        }
      ],
      "stateMutability": "view",
      "type": "function"
    },
    {
      "inputs": [
        {
          "internalType": "address",
          "name": "from",
          "type": "address"
        },
        {
          "internalType": "address",
          "name": "to",
          "type": "address"
        },
        {
          "internalType": "uint256",
          "name": "tokenId",
          "type": "uint256"
        }
      ],
      "name": "safeTransferFrom",
      "outputs": [],
      "stateMutability": "nonpayable",
      "type": "function"
    },
    {
      "inputs": [
        {
          "internalType": "address",
          "name": "from",
          "type": "address"
        },
        {
          "internalType": "address",
          "name": "to",
          "type": "address"
        },
        {
          "internalType": "uint256",
          "name": "tokenId",
          "type": "uint256"
        },
        {
          "internalType": "bytes",
          "name": "data",
          "type": "bytes"
        }
      ],
      "name": "safeTransferFrom",
      "outputs": [],
      "stateMutability": "nonpayable",
      "type": "function"
    },
    {
      "inputs": [
        {
          "internalType": "address",
          "name": "operator",
          "type": "address"
        },
        {
          "internalType": "bool",
          "name": "approved",
          "type": "bool"
        }
      ],
      "name": "setApprovalForAll",
      "outputs": [],
      "stateMutability": "nonpayable",
      "type": "function"
    },
    {
      "inputs": [
        {
          "internalType": "bytes4",
          "name": "interfaceId",
          "type": "bytes4"
        }
      ],
      "name": "supportsInterface",
      "outputs": [
        {
          "internalType": "bool",
          "name": "",
          "type": "bool"
        }
      ],
      "stateMutability": "view",
      "type": "function"
    },
    {
      "inputs": [],
      "name": "symbol",
      "outputs": [
        {
          "internalType": "string",
          "name": "",
          "type": "string"
        }
      ],
      "stateMutability": "view",
      "type": "function"
    },
    {
      "inputs": [
        {
          "internalType": "uint256",
          "name": "tokenId",
          "type": "uint256"
        }
      ],
      "name": "tokenURI",
      "outputs": [
        {
          "internalType": "string",
          "name": "",
          "type": "string"
        }
      ],
      "stateMutability": "view",
      "type": "function"
    },
    {
      "inputs": [
        {
          "internalType": "address",
          "name": "from",
          "type": "address"
        },
        {
          "internalType": "address",
          "name": "to",
          "type": "address"
        },
        {
          "internalType": "uint256",
          "name": "tokenId",
          "type": "uint256"
        }
      ],
      "name": "transferFrom",
      "outputs": [],
      "stateMutability": "nonpayable",
      "type": "function"
    },
    {
      "inputs": [
        {
          "internalType": "address",
          "name": "newOwner",
          "type": "address"
        }
      ],
      "name": "transferOwnership",
      "outputs": [],
      "stateMutability": "nonpayable",
      "type": "function"
    },
    {
      "inputs": [],
      "name": "withdraw",
      "outputs": [],
      "stateMutability": "nonpayable",
      "type": "function"
    }
  ],
  "transactionHash": "0x1b730e426019c7eb2b8916af40ca8bdd1f9f87d50331dc5a8790d5ef253d0b55",
  "args": [
    "0x5FbDB2315678afecb367f032d93F642f64180aa3",
    "1",
    "0xd89b2bf150e3b9e13446986e571fb9cab24b13cea0a43ea20a6049a85cc807cc",
    "500000",
    "10000000000000000",
    [
      "ipfs://QmaVkBn2tKmjbhphU7eyztbvSQU5EXDdqRyXZtRhSGgJGo",
      "ipfs://QmYQC5aGZu2PTH8XzbJrbDnvhj3gVs7ya33H9mqUNvST3d",
      "ipfs://QmZYmH5iDbD6v3U2ixoVAjioSzvWJszDzYdbeCLquGSpVm"
    ]
  ],
  "numDeployments": 1,
  "solcInputHash": "ca309d3fc01a2dd2d3e9b0c15320bb7b",
  "bytecode": "0x6101406040523480156200001257600080fd5b506040516200460d3803806200460d83398181016040528101906200003891906200087e565b6040518060400160405280600f81526020017f52616e646f6d2049504653204e465400000000000000000000000000000000008152506040518060400160405280600381526020017f52494e0000000000000000000000000000000000000000000000000000000000815250878073ffffffffffffffffffffffffffffffffffffffff1660808173ffffffffffffffffffffffffffffffffffffffff1681525050508160009080519060200190620000f292919062000311565b5080600190805190602001906200010b92919062000311565b5050506200012e62000122620001c960201b60201c565b620001d160201b60201c565b8573ffffffffffffffffffffffffffffffffffffffff1660a08173ffffffffffffffffffffffffffffffffffffffff16815250508467ffffffffffffffff1660c08167ffffffffffffffff16815250508360e081815250508263ffffffff166101008163ffffffff1681525050620001ac816200029760201b60201c565b81610120818152505060006009819055505050505050506200099e565b600033905090565b6000600760009054906101000a900473ffffffffffffffffffffffffffffffffffffffff16905081600760006101000a81548173ffffffffffffffffffffffffffffffffffffffff021916908373ffffffffffffffffffffffffffffffffffffffff1602179055508173ffffffffffffffffffffffffffffffffffffffff168173ffffffffffffffffffffffffffffffffffffffff167f8be0079c531659141344cd1fd0a4f28419497f9722a3daafe3b4186f6b6457e060405160405180910390a35050565b600b60009054906101000a900460ff1615620002df576040517fddf8bf7000000000000000000000000000000000000000000000000000000000815260040160405180910390fd5b80600a906003620002f2929190620003a2565b506001600b60006101000a81548160ff02191690831515021790555050565b8280546200031f9062000968565b90600052602060002090601f0160209004810192826200034357600085556200038f565b82601f106200035e57805160ff19168380011785556200038f565b828001600101855582156200038f579182015b828111156200038e57825182559160200191906001019062000371565b5b5090506200039e919062000409565b5090565b828054828255906000526020600020908101928215620003f6579160200282015b82811115620003f5578251829080519060200190620003e492919062000311565b5091602001919060010190620003c3565b5b50905062000405919062000428565b5090565b5b80821115620004245760008160009055506001016200040a565b5090565b5b808211156200044c576000818162000442919062000450565b5060010162000429565b5090565b5080546200045e9062000968565b6000825580601f1062000472575062000493565b601f01602090049060005260206000209081019062000492919062000409565b5b50565b6000604051905090565b600080fd5b600080fd5b600073ffffffffffffffffffffffffffffffffffffffff82169050919050565b6000620004d782620004aa565b9050919050565b620004e981620004ca565b8114620004f557600080fd5b50565b6000815190506200050981620004de565b92915050565b600067ffffffffffffffff82169050919050565b6200052e816200050f565b81146200053a57600080fd5b50565b6000815190506200054e8162000523565b92915050565b6000819050919050565b620005698162000554565b81146200057557600080fd5b50565b60008151905062000589816200055e565b92915050565b600063ffffffff82169050919050565b620005aa816200058f565b8114620005b657600080fd5b50565b600081519050620005ca816200059f565b92915050565b6000819050919050565b620005e581620005d0565b8114620005f157600080fd5b50565b6000815190506200060581620005da565b92915050565b600080fd5b6000601f19601f8301169050919050565b7f4e487b7100000000000000000000000000000000000000000000000000000000600052604160045260246000fd5b6200065b8262000610565b810181811067ffffffffffffffff821117156200067d576200067c62000621565b5b80604052505050565b60006200069262000496565b9050620006a0828262000650565b919050565b600067ffffffffffffffff821115620006c357620006c262000621565b5b602082029050919050565b600080fd5b600080fd5b600067ffffffffffffffff821115620006f657620006f562000621565b5b620007018262000610565b9050602081019050919050565b60005b838110156200072e57808201518184015260208101905062000711565b838111156200073e576000848401525b50505050565b60006200075b6200075584620006d8565b62000686565b9050828152602081018484840111156200077a5762000779620006d3565b5b620007878482856200070e565b509392505050565b600082601f830112620007a757620007a66200060b565b5b8151620007b984826020860162000744565b91505092915050565b6000620007d9620007d384620006a5565b62000686565b90508060208402830185811115620007f657620007f5620006ce565b5b835b818110156200084457805167ffffffffffffffff8111156200081f576200081e6200060b565b5b8086016200082e89826200078f565b85526020850194505050602081019050620007f8565b5050509392505050565b600082601f8301126200086657620008656200060b565b5b600362000875848285620007c2565b91505092915050565b60008060008060008060c087890312156200089e576200089d620004a0565b5b6000620008ae89828a01620004f8565b9650506020620008c189828a016200053d565b9550506040620008d489828a0162000578565b9450506060620008e789828a01620005b9565b9350506080620008fa89828a01620005f4565b92505060a087015167ffffffffffffffff8111156200091e576200091d620004a5565b5b6200092c89828a016200084e565b9150509295509295509295565b7f4e487b7100000000000000000000000000000000000000000000000000000000600052602260045260246000fd5b600060028204905060018216806200098157607f821691505b6020821081141562000998576200099762000939565b5b50919050565b60805160a05160c05160e0516101005161012051613c11620009fc60003960008181610d450152610f540152600061102e01526000610fea0152600061100b01526000610fae015260008181610917015261096b0152613c116000f3fe6080604052600436106101815760003560e01c8063715018a6116100d1578063a51cccf31161008a578063c87b56dd11610064578063c87b56dd14610575578063e985e9c5146105b2578063ee89dab4146105ef578063f2fde38b1461061a57610181565b8063a51cccf3146104f1578063aa1524911461052e578063b88d4fde1461054c57610181565b8063715018a6146103f35780637a5caab31461040a5780638da5cb5b1461043557806395d89b4114610460578063a22cb4651461048b578063a36f573b146104b457610181565b80633af259751161013e5780635dacf5f4116101185780635dacf5f4146103235780636352211e1461034e5780636e02007d1461038b57806370a08231146103b657610181565b80633af25975146102a65780633ccfd60b146102e357806342842e0e146102fa57610181565b806301ffc9a71461018657806306fdde03146101c3578063081812fc146101ee578063095ea7b31461022b5780631fe543e31461025457806323b872dd1461027d575b600080fd5b34801561019257600080fd5b506101ad60048036038101906101a891906127f0565b610643565b6040516101ba9190612838565b60405180910390f35b3480156101cf57600080fd5b506101d8610725565b6040516101e591906128ec565b60405180910390f35b3480156101fa57600080fd5b5061021560048036038101906102109190612944565b6107b7565b60405161022291906129b2565b60405180910390f35b34801561023757600080fd5b50610252600480360381019061024d91906129f9565b6107fd565b005b34801561026057600080fd5b5061027b60048036038101906102769190612b81565b610915565b005b34801561028957600080fd5b506102a4600480360381019061029f9190612bdd565b6109d5565b005b3480156102b257600080fd5b506102cd60048036038101906102c89190612944565b610a35565b6040516102da91906128ec565b60405180910390f35b3480156102ef57600080fd5b506102f8610ae5565b005b34801561030657600080fd5b50610321600480360381019061031c9190612bdd565b610b99565b005b34801561032f57600080fd5b50610338610bb9565b6040516103459190612cdb565b60405180910390f35b34801561035a57600080fd5b5061037560048036038101906103709190612944565b610be4565b60405161038291906129b2565b60405180910390f35b34801561039757600080fd5b506103a0610c6b565b6040516103ad9190612d05565b60405180910390f35b3480156103c257600080fd5b506103dd60048036038101906103d89190612d20565b610c75565b6040516103ea9190612d05565b60405180910390f35b3480156103ff57600080fd5b50610408610d2d565b005b34801561041657600080fd5b5061041f610d41565b60405161042c9190612d05565b60405180910390f35b34801561044157600080fd5b5061044a610d69565b60405161045791906129b2565b60405180910390f35b34801561046c57600080fd5b50610475610d93565b60405161048291906128ec565b60405180910390f35b34801561049757600080fd5b506104b260048036038101906104ad9190612d79565b610e25565b005b3480156104c057600080fd5b506104db60048036038101906104d69190612944565b610e3b565b6040516104e891906129b2565b60405180910390f35b3480156104fd57600080fd5b5061051860048036038101906105139190612944565b610e6e565b6040516105259190612e30565b60405180910390f35b610536610f50565b6040516105439190612d05565b60405180910390f35b34801561055857600080fd5b50610573600480360381019061056e9190612f00565b611150565b005b34801561058157600080fd5b5061059c60048036038101906105979190612944565b6111b2565b6040516105a991906128ec565b60405180910390f35b3480156105be57600080fd5b506105d960048036038101906105d49190612f83565b6112c5565b6040516105e69190612838565b60405180910390f35b3480156105fb57600080fd5b50610604611359565b6040516106119190612838565b60405180910390f35b34801561062657600080fd5b50610641600480360381019061063c9190612d20565b611370565b005b60007f80ac58cd000000000000000000000000000000000000000000000000000000007bffffffffffffffffffffffffffffffffffffffffffffffffffffffff1916827bffffffffffffffffffffffffffffffffffffffffffffffffffffffff1916148061070e57507f5b5e139f000000000000000000000000000000000000000000000000000000007bffffffffffffffffffffffffffffffffffffffffffffffffffffffff1916827bffffffffffffffffffffffffffffffffffffffffffffffffffffffff1916145b8061071e575061071d826113f4565b5b9050919050565b60606000805461073490612ff2565b80601f016020809104026020016040519081016040528092919081815260200182805461076090612ff2565b80156107ad5780601f10610782576101008083540402835291602001916107ad565b820191906000526020600020905b81548152906001019060200180831161079057829003601f168201915b5050505050905090565b60006107c28261145e565b6004600083815260200190815260200160002060009054906101000a900473ffffffffffffffffffffffffffffffffffffffff169050919050565b600061080882610be4565b90508073ffffffffffffffffffffffffffffffffffffffff168373ffffffffffffffffffffffffffffffffffffffff161415610879576040517f08c379a000000000000000000000000000000000000000000000000000000000815260040161087090613096565b60405180910390fd5b8073ffffffffffffffffffffffffffffffffffffffff166108986114a9565b73ffffffffffffffffffffffffffffffffffffffff1614806108c757506108c6816108c16114a9565b6112c5565b5b610906576040517f08c379a00000000000000000000000000000000000000000000000000000000081526004016108fd90613128565b60405180910390fd5b61091083836114b1565b505050565b7f000000000000000000000000000000000000000000000000000000000000000073ffffffffffffffffffffffffffffffffffffffff163373ffffffffffffffffffffffffffffffffffffffff16146109c757337f00000000000000000000000000000000000000000000000000000000000000006040517f1cf993f40000000000000000000000000000000000000000000000000000000081526004016109be929190613148565b60405180910390fd5b6109d1828261156a565b5050565b6109e66109e06114a9565b8261170a565b610a25576040517f08c379a0000000000000000000000000000000000000000000000000000000008152600401610a1c906131e3565b60405180910390fd5b610a3083838361179f565b505050565b6060600a8281548110610a4b57610a4a613203565b5b906000526020600020018054610a6090612ff2565b80601f0160208091040260200160405190810160405280929190818152602001828054610a8c90612ff2565b8015610ad95780601f10610aae57610100808354040283529160200191610ad9565b820191906000526020600020905b815481529060010190602001808311610abc57829003601f168201915b50505050509050919050565b610aed611a99565b600047905060003373ffffffffffffffffffffffffffffffffffffffff1682604051610b1890613263565b60006040518083038185875af1925050503d8060008114610b55576040519150601f19603f3d011682016040523d82523d6000602084013e610b5a565b606091505b5050905080610b95576040517fca7e25b700000000000000000000000000000000000000000000000000000000815260040160405180910390fd5b5050565b610bb483838360405180602001604052806000815250611150565b505050565b610bc16126bf565b6040518060600160405280600a8152602001601e81526020016064815250905090565b600080610bf083611b17565b9050600073ffffffffffffffffffffffffffffffffffffffff168173ffffffffffffffffffffffffffffffffffffffff161415610c62576040517f08c379a0000000000000000000000000000000000000000000000000000000008152600401610c59906132c4565b60405180910390fd5b80915050919050565b6000600954905090565b60008073ffffffffffffffffffffffffffffffffffffffff168273ffffffffffffffffffffffffffffffffffffffff161415610ce6576040517f08c379a0000000000000000000000000000000000000000000000000000000008152600401610cdd90613356565b60405180910390fd5b600360008373ffffffffffffffffffffffffffffffffffffffff1673ffffffffffffffffffffffffffffffffffffffff168152602001908152602001600020549050919050565b610d35611a99565b610d3f6000611b54565b565b60007f0000000000000000000000000000000000000000000000000000000000000000905090565b6000600760009054906101000a900473ffffffffffffffffffffffffffffffffffffffff16905090565b606060018054610da290612ff2565b80601f0160208091040260200160405190810160405280929190818152602001828054610dce90612ff2565b8015610e1b5780601f10610df057610100808354040283529160200191610e1b565b820191906000526020600020905b815481529060010190602001808311610dfe57829003601f168201915b5050505050905090565b610e37610e306114a9565b8383611c1a565b5050565b60086020528060005260406000206000915054906101000a900473ffffffffffffffffffffffffffffffffffffffff1681565b600080600090506000610e7f610bb9565b905060005b6003811015610f1857828510158015610ebe5750818160038110610eab57610eaa613203565b5b602002015183610ebb91906133a5565b85105b15610ee057806002811115610ed657610ed5612db9565b5b9350505050610f4b565b818160038110610ef357610ef2613203565b5b602002015183610f0391906133a5565b92508080610f10906133fb565b915050610e84565b506040517f12806c9d00000000000000000000000000000000000000000000000000000000815260040160405180910390fd5b919050565b60007f0000000000000000000000000000000000000000000000000000000000000000341015610fac576040517fb90f491000000000000000000000000000000000000000000000000000000000815260040160405180910390fd5b7f000000000000000000000000000000000000000000000000000000000000000073ffffffffffffffffffffffffffffffffffffffff16635d3b1d307f00000000000000000000000000000000000000000000000000000000000000007f000000000000000000000000000000000000000000000000000000000000000060037f000000000000000000000000000000000000000000000000000000000000000060016040518663ffffffff1660e01b815260040161106f9594939291906134bc565b602060405180830381600087803b15801561108957600080fd5b505af115801561109d573d6000803e3d6000fd5b505050506040513d601f19601f820116820180604052508101906110c19190613524565b9050336008600083815260200190815260200160002060006101000a81548173ffffffffffffffffffffffffffffffffffffffff021916908373ffffffffffffffffffffffffffffffffffffffff160217905550807ff873236e6cc0ecc5be1a9a35c95ee5b8d1ac4cc7bfef0cc5060391d6cc98e26b3360405161114591906129b2565b60405180910390a290565b61116161115b6114a9565b8361170a565b6111a0576040517f08c379a0000000000000000000000000000000000000000000000000000000008152600401611197906131e3565b60405180910390fd5b6111ac84848484611d87565b50505050565b60606111bd8261145e565b60006006600084815260200190815260200160002080546111dd90612ff2565b80601f016020809104026020016040519081016040528092919081815260200182805461120990612ff2565b80156112565780601f1061122b57610100808354040283529160200191611256565b820191906000526020600020905b81548152906001019060200180831161123957829003601f168201915b505050505090506000611267611de3565b905060008151141561127d5781925050506112c0565b6000825111156112b257808260405160200161129a92919061358d565b604051602081830303815290604052925050506112c0565b6112bb84611dfa565b925050505b919050565b6000600560008473ffffffffffffffffffffffffffffffffffffffff1673ffffffffffffffffffffffffffffffffffffffff16815260200190815260200160002060008373ffffffffffffffffffffffffffffffffffffffff1673ffffffffffffffffffffffffffffffffffffffff16815260200190815260200160002060009054906101000a900460ff16905092915050565b6000600b60009054906101000a900460ff16905090565b611378611a99565b600073ffffffffffffffffffffffffffffffffffffffff168173ffffffffffffffffffffffffffffffffffffffff1614156113e8576040517f08c379a00000000000000000000000000000000000000000000000000000000081526004016113df90613623565b60405180910390fd5b6113f181611b54565b50565b60007f01ffc9a7000000000000000000000000000000000000000000000000000000007bffffffffffffffffffffffffffffffffffffffffffffffffffffffff1916827bffffffffffffffffffffffffffffffffffffffffffffffffffffffff1916149050919050565b61146781611e62565b6114a6576040517f08c379a000000000000000000000000000000000000000000000000000000000815260040161149d906132c4565b60405180910390fd5b50565b600033905090565b816004600083815260200190815260200160002060006101000a81548173ffffffffffffffffffffffffffffffffffffffff021916908373ffffffffffffffffffffffffffffffffffffffff160217905550808273ffffffffffffffffffffffffffffffffffffffff1661152483610be4565b73ffffffffffffffffffffffffffffffffffffffff167f8c5be1e5ebec7d5bd14f71427d1e84f3dd0314c0f7b2291e5b200ac8c7c3b92560405160405180910390a45050565b60006008600084815260200190815260200160002060009054906101000a900473ffffffffffffffffffffffffffffffffffffffff1690506000600954905060006064846000815181106115c1576115c0613203565b5b60200260200101516115d39190613672565b905060006115e082610e6e565b9050600954600960008282546115f691906133a5565b925050819055506116073384611ea3565b6116c983600a8360028111156116205761161f612db9565b5b8154811061163157611630613203565b5b90600052602060002001805461164690612ff2565b80601f016020809104026020016040519081016040528092919081815260200182805461167290612ff2565b80156116bf5780601f10611694576101008083540402835291602001916116bf565b820191906000526020600020905b8154815290600101906020018083116116a257829003601f168201915b5050505050611ec1565b7f8a269f26b688e110e9cbd887d163dab35cae678fa353a0292de532c0cac1ecdc81856040516116fa9291906136a3565b60405180910390a1505050505050565b60008061171683610be4565b90508073ffffffffffffffffffffffffffffffffffffffff168473ffffffffffffffffffffffffffffffffffffffff161480611758575061175781856112c5565b5b8061179657508373ffffffffffffffffffffffffffffffffffffffff1661177e846107b7565b73ffffffffffffffffffffffffffffffffffffffff16145b91505092915050565b8273ffffffffffffffffffffffffffffffffffffffff166117bf82610be4565b73ffffffffffffffffffffffffffffffffffffffff1614611815576040517f08c379a000000000000000000000000000000000000000000000000000000000815260040161180c9061373e565b60405180910390fd5b600073ffffffffffffffffffffffffffffffffffffffff168273ffffffffffffffffffffffffffffffffffffffff161415611885576040517f08c379a000000000000000000000000000000000000000000000000000000000815260040161187c906137d0565b60405180910390fd5b6118928383836001611f35565b8273ffffffffffffffffffffffffffffffffffffffff166118b282610be4565b73ffffffffffffffffffffffffffffffffffffffff1614611908576040517f08c379a00000000000000000000000000000000000000000000000000000000081526004016118ff9061373e565b60405180910390fd5b6004600082815260200190815260200160002060006101000a81549073ffffffffffffffffffffffffffffffffffffffff02191690556001600360008573ffffffffffffffffffffffffffffffffffffffff1673ffffffffffffffffffffffffffffffffffffffff168152602001908152602001600020600082825403925050819055506001600360008473ffffffffffffffffffffffffffffffffffffffff1673ffffffffffffffffffffffffffffffffffffffff16815260200190815260200160002060008282540192505081905550816002600083815260200190815260200160002060006101000a81548173ffffffffffffffffffffffffffffffffffffffff021916908373ffffffffffffffffffffffffffffffffffffffff160217905550808273ffffffffffffffffffffffffffffffffffffffff168473ffffffffffffffffffffffffffffffffffffffff167fddf252ad1be2c89b69c2b068fc378daa952ba7f163c4a11628f55a4df523b3ef60405160405180910390a4611a94838383600161205b565b505050565b611aa16114a9565b73ffffffffffffffffffffffffffffffffffffffff16611abf610d69565b73ffffffffffffffffffffffffffffffffffffffff1614611b15576040517f08c379a0000000000000000000000000000000000000000000000000000000008152600401611b0c9061383c565b60405180910390fd5b565b60006002600083815260200190815260200160002060009054906101000a900473ffffffffffffffffffffffffffffffffffffffff169050919050565b6000600760009054906101000a900473ffffffffffffffffffffffffffffffffffffffff16905081600760006101000a81548173ffffffffffffffffffffffffffffffffffffffff021916908373ffffffffffffffffffffffffffffffffffffffff1602179055508173ffffffffffffffffffffffffffffffffffffffff168173ffffffffffffffffffffffffffffffffffffffff167f8be0079c531659141344cd1fd0a4f28419497f9722a3daafe3b4186f6b6457e060405160405180910390a35050565b8173ffffffffffffffffffffffffffffffffffffffff168373ffffffffffffffffffffffffffffffffffffffff161415611c89576040517f08c379a0000000000000000000000000000000000000000000000000000000008152600401611c80906138a8565b60405180910390fd5b80600560008573ffffffffffffffffffffffffffffffffffffffff1673ffffffffffffffffffffffffffffffffffffffff16815260200190815260200160002060008473ffffffffffffffffffffffffffffffffffffffff1673ffffffffffffffffffffffffffffffffffffffff16815260200190815260200160002060006101000a81548160ff0219169083151502179055508173ffffffffffffffffffffffffffffffffffffffff168373ffffffffffffffffffffffffffffffffffffffff167f17307eab39ab6107e8899845ad3d59bd9653f200f220920489ca2b5937696c3183604051611d7a9190612838565b60405180910390a3505050565b611d9284848461179f565b611d9e84848484612061565b611ddd576040517f08c379a0000000000000000000000000000000000000000000000000000000008152600401611dd49061393a565b60405180910390fd5b50505050565b606060405180602001604052806000815250905090565b6060611e058261145e565b6000611e0f611de3565b90506000815111611e2f5760405180602001604052806000815250611e5a565b80611e39846121f8565b604051602001611e4a92919061358d565b6040516020818303038152906040525b915050919050565b60008073ffffffffffffffffffffffffffffffffffffffff16611e8483611b17565b73ffffffffffffffffffffffffffffffffffffffff1614159050919050565b611ebd8282604051806020016040528060008152506122d0565b5050565b611eca82611e62565b611f09576040517f08c379a0000000000000000000000000000000000000000000000000000000008152600401611f00906139cc565b60405180910390fd5b80600660008481526020019081526020016000209080519060200190611f309291906126e1565b505050565b600181111561205557600073ffffffffffffffffffffffffffffffffffffffff168473ffffffffffffffffffffffffffffffffffffffff1614611fc95780600360008673ffffffffffffffffffffffffffffffffffffffff1673ffffffffffffffffffffffffffffffffffffffff1681526020019081526020016000206000828254611fc191906139ec565b925050819055505b600073ffffffffffffffffffffffffffffffffffffffff168373ffffffffffffffffffffffffffffffffffffffff16146120545780600360008573ffffffffffffffffffffffffffffffffffffffff1673ffffffffffffffffffffffffffffffffffffffff168152602001908152602001600020600082825461204c91906133a5565b925050819055505b5b50505050565b50505050565b60006120828473ffffffffffffffffffffffffffffffffffffffff1661232b565b156121eb578373ffffffffffffffffffffffffffffffffffffffff1663150b7a026120ab6114a9565b8786866040518563ffffffff1660e01b81526004016120cd9493929190613a75565b602060405180830381600087803b1580156120e757600080fd5b505af192505050801561211857506040513d601f19601f820116820180604052508101906121159190613ad6565b60015b61219b573d8060008114612148576040519150601f19603f3d011682016040523d82523d6000602084013e61214d565b606091505b50600081511415612193576040517f08c379a000000000000000000000000000000000000000000000000000000000815260040161218a9061393a565b60405180910390fd5b805181602001fd5b63150b7a0260e01b7bffffffffffffffffffffffffffffffffffffffffffffffffffffffff1916817bffffffffffffffffffffffffffffffffffffffffffffffffffffffff1916149150506121f0565b600190505b949350505050565b6060600060016122078461234e565b01905060008167ffffffffffffffff81111561222657612225612a3e565b5b6040519080825280601f01601f1916602001820160405280156122585781602001600182028036833780820191505090505b509050600082602001820190505b6001156122c5578080600190039150507f3031323334353637383961626364656600000000000000000000000000000000600a86061a8153600a85816122af576122ae613643565b5b04945060008514156122c0576122c5565b612266565b819350505050919050565b6122da83836124a1565b6122e76000848484612061565b612326576040517f08c379a000000000000000000000000000000000000000000000000000000000815260040161231d9061393a565b60405180910390fd5b505050565b6000808273ffffffffffffffffffffffffffffffffffffffff163b119050919050565b600080600090507a184f03e93ff9f4daa797ed6e38ed64bf6a1f01000000000000000083106123ac577a184f03e93ff9f4daa797ed6e38ed64bf6a1f01000000000000000083816123a2576123a1613643565b5b0492506040810190505b6d04ee2d6d415b85acef810000000083106123e9576d04ee2d6d415b85acef810000000083816123df576123de613643565b5b0492506020810190505b662386f26fc10000831061241857662386f26fc10000838161240e5761240d613643565b5b0492506010810190505b6305f5e1008310612441576305f5e100838161243757612436613643565b5b0492506008810190505b612710831061246657612710838161245c5761245b613643565b5b0492506004810190505b60648310612489576064838161247f5761247e613643565b5b0492506002810190505b600a8310612498576001810190505b80915050919050565b600073ffffffffffffffffffffffffffffffffffffffff168273ffffffffffffffffffffffffffffffffffffffff161415612511576040517f08c379a000000000000000000000000000000000000000000000000000000000815260040161250890613b4f565b60405180910390fd5b61251a81611e62565b1561255a576040517f08c379a000000000000000000000000000000000000000000000000000000000815260040161255190613bbb565b60405180910390fd5b612568600083836001611f35565b61257181611e62565b156125b1576040517f08c379a00000000000000000000000000000000000000000000000000000000081526004016125a890613bbb565b60405180910390fd5b6001600360008473ffffffffffffffffffffffffffffffffffffffff1673ffffffffffffffffffffffffffffffffffffffff16815260200190815260200160002060008282540192505081905550816002600083815260200190815260200160002060006101000a81548173ffffffffffffffffffffffffffffffffffffffff021916908373ffffffffffffffffffffffffffffffffffffffff160217905550808273ffffffffffffffffffffffffffffffffffffffff16600073ffffffffffffffffffffffffffffffffffffffff167fddf252ad1be2c89b69c2b068fc378daa952ba7f163c4a11628f55a4df523b3ef60405160405180910390a46126bb60008383600161205b565b5050565b6040518060600160405280600390602082028036833780820191505090505090565b8280546126ed90612ff2565b90600052602060002090601f01602090048101928261270f5760008555612756565b82601f1061272857805160ff1916838001178555612756565b82800160010185558215612756579182015b8281111561275557825182559160200191906001019061273a565b5b5090506127639190612767565b5090565b5b80821115612780576000816000905550600101612768565b5090565b6000604051905090565b600080fd5b600080fd5b60007fffffffff0000000000000000000000000000000000000000000000000000000082169050919050565b6127cd81612798565b81146127d857600080fd5b50565b6000813590506127ea816127c4565b92915050565b6000602082840312156128065761280561278e565b5b6000612814848285016127db565b91505092915050565b60008115159050919050565b6128328161281d565b82525050565b600060208201905061284d6000830184612829565b92915050565b600081519050919050565b600082825260208201905092915050565b60005b8381101561288d578082015181840152602081019050612872565b8381111561289c576000848401525b50505050565b6000601f19601f8301169050919050565b60006128be82612853565b6128c8818561285e565b93506128d881856020860161286f565b6128e1816128a2565b840191505092915050565b6000602082019050818103600083015261290681846128b3565b905092915050565b6000819050919050565b6129218161290e565b811461292c57600080fd5b50565b60008135905061293e81612918565b92915050565b60006020828403121561295a5761295961278e565b5b60006129688482850161292f565b91505092915050565b600073ffffffffffffffffffffffffffffffffffffffff82169050919050565b600061299c82612971565b9050919050565b6129ac81612991565b82525050565b60006020820190506129c760008301846129a3565b92915050565b6129d681612991565b81146129e157600080fd5b50565b6000813590506129f3816129cd565b92915050565b60008060408385031215612a1057612a0f61278e565b5b6000612a1e858286016129e4565b9250506020612a2f8582860161292f565b9150509250929050565b600080fd5b7f4e487b7100000000000000000000000000000000000000000000000000000000600052604160045260246000fd5b612a76826128a2565b810181811067ffffffffffffffff82111715612a9557612a94612a3e565b5b80604052505050565b6000612aa8612784565b9050612ab48282612a6d565b919050565b600067ffffffffffffffff821115612ad457612ad3612a3e565b5b602082029050602081019050919050565b600080fd5b6000612afd612af884612ab9565b612a9e565b90508083825260208201905060208402830185811115612b2057612b1f612ae5565b5b835b81811015612b495780612b35888261292f565b845260208401935050602081019050612b22565b5050509392505050565b600082601f830112612b6857612b67612a39565b5b8135612b78848260208601612aea565b91505092915050565b60008060408385031215612b9857612b9761278e565b5b6000612ba68582860161292f565b925050602083013567ffffffffffffffff811115612bc757612bc6612793565b5b612bd385828601612b53565b9150509250929050565b600080600060608486031215612bf657612bf561278e565b5b6000612c04868287016129e4565b9350506020612c15868287016129e4565b9250506040612c268682870161292f565b9150509250925092565b600060039050919050565b600081905092915050565b6000819050919050565b612c598161290e565b82525050565b6000612c6b8383612c50565b60208301905092915050565b6000602082019050919050565b612c8d81612c30565b612c978184612c3b565b9250612ca282612c46565b8060005b83811015612cd3578151612cba8782612c5f565b9650612cc583612c77565b925050600181019050612ca6565b505050505050565b6000606082019050612cf06000830184612c84565b92915050565b612cff8161290e565b82525050565b6000602082019050612d1a6000830184612cf6565b92915050565b600060208284031215612d3657612d3561278e565b5b6000612d44848285016129e4565b91505092915050565b612d568161281d565b8114612d6157600080fd5b50565b600081359050612d7381612d4d565b92915050565b60008060408385031215612d9057612d8f61278e565b5b6000612d9e858286016129e4565b9250506020612daf85828601612d64565b9150509250929050565b7f4e487b7100000000000000000000000000000000000000000000000000000000600052602160045260246000fd5b60038110612df957612df8612db9565b5b50565b6000819050612e0a82612de8565b919050565b6000612e1a82612dfc565b9050919050565b612e2a81612e0f565b82525050565b6000602082019050612e456000830184612e21565b92915050565b600080fd5b600067ffffffffffffffff821115612e6b57612e6a612a3e565b5b612e74826128a2565b9050602081019050919050565b82818337600083830152505050565b6000612ea3612e9e84612e50565b612a9e565b905082815260208101848484011115612ebf57612ebe612e4b565b5b612eca848285612e81565b509392505050565b600082601f830112612ee757612ee6612a39565b5b8135612ef7848260208601612e90565b91505092915050565b60008060008060808587031215612f1a57612f1961278e565b5b6000612f28878288016129e4565b9450506020612f39878288016129e4565b9350506040612f4a8782880161292f565b925050606085013567ffffffffffffffff811115612f6b57612f6a612793565b5b612f7787828801612ed2565b91505092959194509250565b60008060408385031215612f9a57612f9961278e565b5b6000612fa8858286016129e4565b9250506020612fb9858286016129e4565b9150509250929050565b7f4e487b7100000000000000000000000000000000000000000000000000000000600052602260045260246000fd5b6000600282049050600182168061300a57607f821691505b6020821081141561301e5761301d612fc3565b5b50919050565b7f4552433732313a20617070726f76616c20746f2063757272656e74206f776e6560008201527f7200000000000000000000000000000000000000000000000000000000000000602082015250565b600061308060218361285e565b915061308b82613024565b604082019050919050565b600060208201905081810360008301526130af81613073565b9050919050565b7f4552433732313a20617070726f76652063616c6c6572206973206e6f7420746f60008201527f6b656e206f776e6572206f7220617070726f76656420666f7220616c6c000000602082015250565b6000613112603d8361285e565b915061311d826130b6565b604082019050919050565b6000602082019050818103600083015261314181613105565b9050919050565b600060408201905061315d60008301856129a3565b61316a60208301846129a3565b9392505050565b7f4552433732313a2063616c6c6572206973206e6f7420746f6b656e206f776e6560008201527f72206f7220617070726f76656400000000000000000000000000000000000000602082015250565b60006131cd602d8361285e565b91506131d882613171565b604082019050919050565b600060208201905081810360008301526131fc816131c0565b9050919050565b7f4e487b7100000000000000000000000000000000000000000000000000000000600052603260045260246000fd5b600081905092915050565b50565b600061324d600083613232565b91506132588261323d565b600082019050919050565b600061326e82613240565b9150819050919050565b7f4552433732313a20696e76616c696420746f6b656e2049440000000000000000600082015250565b60006132ae60188361285e565b91506132b982613278565b602082019050919050565b600060208201905081810360008301526132dd816132a1565b9050919050565b7f4552433732313a2061646472657373207a65726f206973206e6f74206120766160008201527f6c6964206f776e65720000000000000000000000000000000000000000000000602082015250565b600061334060298361285e565b915061334b826132e4565b604082019050919050565b6000602082019050818103600083015261336f81613333565b9050919050565b7f4e487b7100000000000000000000000000000000000000000000000000000000600052601160045260246000fd5b60006133b08261290e565b91506133bb8361290e565b9250827fffffffffffffffffffffffffffffffffffffffffffffffffffffffffffffffff038211156133f0576133ef613376565b5b828201905092915050565b60006134068261290e565b91507fffffffffffffffffffffffffffffffffffffffffffffffffffffffffffffffff82141561343957613438613376565b5b600182019050919050565b6000819050919050565b61345781613444565b82525050565b600067ffffffffffffffff82169050919050565b61347a8161345d565b82525050565b600061ffff82169050919050565b61349781613480565b82525050565b600063ffffffff82169050919050565b6134b68161349d565b82525050565b600060a0820190506134d1600083018861344e565b6134de6020830187613471565b6134eb604083018661348e565b6134f860608301856134ad565b61350560808301846134ad565b9695505050505050565b60008151905061351e81612918565b92915050565b60006020828403121561353a5761353961278e565b5b60006135488482850161350f565b91505092915050565b600081905092915050565b600061356782612853565b6135718185613551565b935061358181856020860161286f565b80840191505092915050565b6000613599828561355c565b91506135a5828461355c565b91508190509392505050565b7f4f776e61626c653a206e6577206f776e657220697320746865207a65726f206160008201527f6464726573730000000000000000000000000000000000000000000000000000602082015250565b600061360d60268361285e565b9150613618826135b1565b604082019050919050565b6000602082019050818103600083015261363c81613600565b9050919050565b7f4e487b7100000000000000000000000000000000000000000000000000000000600052601260045260246000fd5b600061367d8261290e565b91506136888361290e565b92508261369857613697613643565b5b828206905092915050565b60006040820190506136b86000830185612e21565b6136c560208301846129a3565b9392505050565b7f4552433732313a207472616e736665722066726f6d20696e636f72726563742060008201527f6f776e6572000000000000000000000000000000000000000000000000000000602082015250565b600061372860258361285e565b9150613733826136cc565b604082019050919050565b600060208201905081810360008301526137578161371b565b9050919050565b7f4552433732313a207472616e7366657220746f20746865207a65726f2061646460008201527f7265737300000000000000000000000000000000000000000000000000000000602082015250565b60006137ba60248361285e565b91506137c58261375e565b604082019050919050565b600060208201905081810360008301526137e9816137ad565b9050919050565b7f4f776e61626c653a2063616c6c6572206973206e6f7420746865206f776e6572600082015250565b600061382660208361285e565b9150613831826137f0565b602082019050919050565b6000602082019050818103600083015261385581613819565b9050919050565b7f4552433732313a20617070726f766520746f2063616c6c657200000000000000600082015250565b600061389260198361285e565b915061389d8261385c565b602082019050919050565b600060208201905081810360008301526138c181613885565b9050919050565b7f4552433732313a207472616e7366657220746f206e6f6e20455243373231526560008201527f63656976657220696d706c656d656e7465720000000000000000000000000000602082015250565b600061392460328361285e565b915061392f826138c8565b604082019050919050565b6000602082019050818103600083015261395381613917565b9050919050565b7f45524337323155524953746f726167653a2055524920736574206f66206e6f6e60008201527f6578697374656e7420746f6b656e000000000000000000000000000000000000602082015250565b60006139b6602e8361285e565b91506139c18261395a565b604082019050919050565b600060208201905081810360008301526139e5816139a9565b9050919050565b60006139f78261290e565b9150613a028361290e565b925082821015613a1557613a14613376565b5b828203905092915050565b600081519050919050565b600082825260208201905092915050565b6000613a4782613a20565b613a518185613a2b565b9350613a6181856020860161286f565b613a6a816128a2565b840191505092915050565b6000608082019050613a8a60008301876129a3565b613a9760208301866129a3565b613aa46040830185612cf6565b8181036060830152613ab68184613a3c565b905095945050505050565b600081519050613ad0816127c4565b92915050565b600060208284031215613aec57613aeb61278e565b5b6000613afa84828501613ac1565b91505092915050565b7f4552433732313a206d696e7420746f20746865207a65726f2061646472657373600082015250565b6000613b3960208361285e565b9150613b4482613b03565b602082019050919050565b60006020820190508181036000830152613b6881613b2c565b9050919050565b7f4552433732313a20746f6b656e20616c7265616479206d696e74656400000000600082015250565b6000613ba5601c8361285e565b9150613bb082613b6f565b602082019050919050565b60006020820190508181036000830152613bd481613b98565b905091905056fea2646970667358221220049d09c3503738e63e558029ce50b08f7a5bfb02abf9ed1f56116e8db70d349764736f6c63430008090033",
  "devdoc": {
    "kind": "dev",
    "methods": {
      "approve(address,uint256)": {
        "details": "See {IERC721-approve}."
      },
      "balanceOf(address)": {
        "details": "See {IERC721-balanceOf}."
      },
      "getApproved(uint256)": {
        "details": "See {IERC721-getApproved}."
      },
      "isApprovedForAll(address,address)": {
        "details": "See {IERC721-isApprovedForAll}."
      },
      "name()": {
        "details": "See {IERC721Metadata-name}."
      },
      "owner()": {
        "details": "Returns the address of the current owner."
      },
      "ownerOf(uint256)": {
        "details": "See {IERC721-ownerOf}."
      },
      "renounceOwnership()": {
        "details": "Leaves the contract without owner. It will not be possible to call `onlyOwner` functions anymore. Can only be called by the current owner. NOTE: Renouncing ownership will leave the contract without an owner, thereby removing any functionality that is only available to the owner."
      },
      "safeTransferFrom(address,address,uint256)": {
        "details": "See {IERC721-safeTransferFrom}."
      },
      "safeTransferFrom(address,address,uint256,bytes)": {
        "details": "See {IERC721-safeTransferFrom}."
      },
      "setApprovalForAll(address,bool)": {
        "details": "See {IERC721-setApprovalForAll}."
      },
      "supportsInterface(bytes4)": {
        "details": "See {IERC165-supportsInterface}."
      },
      "symbol()": {
        "details": "See {IERC721Metadata-symbol}."
      },
      "tokenURI(uint256)": {
        "details": "See {IERC721Metadata-tokenURI}."
      },
      "transferFrom(address,address,uint256)": {
        "details": "See {IERC721-transferFrom}."
      },
      "transferOwnership(address)": {
        "details": "Transfers ownership of the contract to a new account (`newOwner`). Can only be called by the current owner."
      }
    },
    "version": 1
  },
  "userdoc": {
    "kind": "user",
    "methods": {},
    "version": 1
  },
  "storageLayout": {
    "storage": [
      {
        "astId": 292,
        "contract": "contracts/RandomIpfsNft.sol:RandomIpfsNft",
        "label": "_name",
        "offset": 0,
        "slot": "0",
        "type": "t_string_storage"
      },
      {
        "astId": 294,
        "contract": "contracts/RandomIpfsNft.sol:RandomIpfsNft",
        "label": "_symbol",
        "offset": 0,
        "slot": "1",
        "type": "t_string_storage"
      },
      {
        "astId": 298,
        "contract": "contracts/RandomIpfsNft.sol:RandomIpfsNft",
        "label": "_owners",
        "offset": 0,
        "slot": "2",
        "type": "t_mapping(t_uint256,t_address)"
      },
      {
        "astId": 302,
        "contract": "contracts/RandomIpfsNft.sol:RandomIpfsNft",
        "label": "_balances",
        "offset": 0,
        "slot": "3",
        "type": "t_mapping(t_address,t_uint256)"
      },
      {
        "astId": 306,
        "contract": "contracts/RandomIpfsNft.sol:RandomIpfsNft",
        "label": "_tokenApprovals",
        "offset": 0,
        "slot": "4",
        "type": "t_mapping(t_uint256,t_address)"
      },
      {
        "astId": 312,
        "contract": "contracts/RandomIpfsNft.sol:RandomIpfsNft",
        "label": "_operatorApprovals",
        "offset": 0,
        "slot": "5",
        "type": "t_mapping(t_address,t_mapping(t_address,t_bool))"
      },
      {
        "astId": 1358,
        "contract": "contracts/RandomIpfsNft.sol:RandomIpfsNft",
        "label": "_tokenURIs",
        "offset": 0,
        "slot": "6",
        "type": "t_mapping(t_uint256,t_string_storage)"
      },
      {
        "astId": 161,
        "contract": "contracts/RandomIpfsNft.sol:RandomIpfsNft",
        "label": "_owner",
        "offset": 0,
        "slot": "7",
        "type": "t_address"
      },
      {
        "astId": 2968,
        "contract": "contracts/RandomIpfsNft.sol:RandomIpfsNft",
        "label": "s_requestIdToSender",
        "offset": 0,
        "slot": "8",
        "type": "t_mapping(t_uint256,t_address)"
      },
      {
        "astId": 2970,
        "contract": "contracts/RandomIpfsNft.sol:RandomIpfsNft",
        "label": "s_tokenCounter",
        "offset": 0,
        "slot": "9",
        "type": "t_uint256"
      },
      {
        "astId": 2978,
        "contract": "contracts/RandomIpfsNft.sol:RandomIpfsNft",
        "label": "s_dogTokenUris",
        "offset": 0,
        "slot": "10",
        "type": "t_array(t_string_storage)dyn_storage"
      },
      {
        "astId": 2980,
        "contract": "contracts/RandomIpfsNft.sol:RandomIpfsNft",
        "label": "s_initialized",
        "offset": 0,
        "slot": "11",
        "type": "t_bool"
      }
    ],
    "types": {
      "t_address": {
        "encoding": "inplace",
        "label": "address",
        "numberOfBytes": "20"
      },
      "t_array(t_string_storage)dyn_storage": {
        "base": "t_string_storage",
        "encoding": "dynamic_array",
        "label": "string[]",
        "numberOfBytes": "32"
      },
      "t_bool": {
        "encoding": "inplace",
        "label": "bool",
        "numberOfBytes": "1"
      },
      "t_mapping(t_address,t_bool)": {
        "encoding": "mapping",
        "key": "t_address",
        "label": "mapping(address => bool)",
        "numberOfBytes": "32",
        "value": "t_bool"
      },
      "t_mapping(t_address,t_mapping(t_address,t_bool))": {
        "encoding": "mapping",
        "key": "t_address",
        "label": "mapping(address => mapping(address => bool))",
        "numberOfBytes": "32",
        "value": "t_mapping(t_address,t_bool)"
      },
      "t_mapping(t_address,t_uint256)": {
        "encoding": "mapping",
        "key": "t_address",
        "label": "mapping(address => uint256)",
        "numberOfBytes": "32",
        "value": "t_uint256"
      },
      "t_mapping(t_uint256,t_address)": {
        "encoding": "mapping",
        "key": "t_uint256",
        "label": "mapping(uint256 => address)",
        "numberOfBytes": "32",
        "value": "t_address"
      },
      "t_mapping(t_uint256,t_string_storage)": {
        "encoding": "mapping",
        "key": "t_uint256",
        "label": "mapping(uint256 => string)",
        "numberOfBytes": "32",
        "value": "t_string_storage"
      },
      "t_string_storage": {
        "encoding": "bytes",
        "label": "string",
        "numberOfBytes": "32"
      },
      "t_uint256": {
        "encoding": "inplace",
        "label": "uint256",
        "numberOfBytes": "32"
      }
    }
  }
}